{
  "_format": "hh-sol-artifact-1",
  "contractName": "DistributionQueue",
  "sourceName": "contracts/DistributionQueue.sol",
  "abi": [
    {
      "inputs": [
        {
          "internalType": "address",
          "name": "_attestationHandler",
          "type": "address"
        }
      ],
      "stateMutability": "nonpayable",
      "type": "constructor"
    },
    {
      "inputs": [],
      "name": "OnlyAttestationHandler",
      "type": "error"
    },
    {
      "inputs": [],
      "name": "OnlyOwner",
      "type": "error"
    },
    {
      "anonymous": false,
      "inputs": [
        {
          "indexed": false,
          "internalType": "address",
          "name": "attestationHandler",
          "type": "address"
        }
      ],
      "name": "AttestationHandlerUpdated",
      "type": "event"
    },
    {
      "anonymous": false,
      "inputs": [
        {
          "components": [
            {
              "internalType": "uint256",
              "name": "timestamp",
              "type": "uint256"
            },
            {
              "internalType": "address",
              "name": "distributor",
              "type": "address"
            },
            {
              "internalType": "enum DistributionStatus",
              "name": "status",
              "type": "uint8"
            }
          ],
          "indexed": false,
          "internalType": "struct Distribution",
          "name": "distribution",
          "type": "tuple"
        }
      ],
      "name": "DistributionAdded",
      "type": "event"
    },
    {
      "anonymous": false,
      "inputs": [
        {
          "components": [
            {
              "internalType": "uint256",
              "name": "timestamp",
              "type": "uint256"
            },
            {
              "internalType": "address",
              "name": "distributor",
              "type": "address"
            },
            {
              "internalType": "enum DistributionStatus",
              "name": "status",
              "type": "uint8"
            }
          ],
          "indexed": false,
          "internalType": "struct Distribution",
          "name": "distribution",
          "type": "tuple"
        }
      ],
      "name": "DistributionStatusUpdated",
      "type": "event"
    },
    {
      "anonymous": false,
      "inputs": [
        {
          "indexed": false,
          "internalType": "address",
          "name": "owner",
          "type": "address"
        }
      ],
      "name": "OwnerUpdated",
      "type": "event"
    },
    {
      "inputs": [],
      "name": "addDistribution",
      "outputs": [],
      "stateMutability": "nonpayable",
      "type": "function"
    },
    {
      "inputs": [],
      "name": "attestationHandler",
      "outputs": [
        {
          "internalType": "address",
          "name": "",
          "type": "address"
        }
      ],
      "stateMutability": "view",
      "type": "function"
    },
    {
      "inputs": [],
      "name": "getQueueCount",
      "outputs": [
        {
          "internalType": "uint256",
          "name": "",
          "type": "uint256"
        }
      ],
      "stateMutability": "view",
      "type": "function"
    },
    {
      "inputs": [],
      "name": "owner",
      "outputs": [
        {
          "internalType": "address",
          "name": "",
          "type": "address"
        }
      ],
      "stateMutability": "view",
      "type": "function"
    },
    {
      "inputs": [
        {
          "internalType": "uint256",
          "name": "",
          "type": "uint256"
        }
      ],
      "name": "queue",
      "outputs": [
        {
          "internalType": "uint256",
          "name": "timestamp",
          "type": "uint256"
        },
        {
          "internalType": "address",
          "name": "distributor",
          "type": "address"
        },
        {
          "internalType": "enum DistributionStatus",
          "name": "status",
          "type": "uint8"
        }
      ],
      "stateMutability": "view",
      "type": "function"
    },
    {
      "inputs": [
        {
          "internalType": "address",
          "name": "_attestationHandler",
          "type": "address"
        }
      ],
      "name": "updateAttestationHandler",
      "outputs": [],
      "stateMutability": "nonpayable",
      "type": "function"
    },
    {
      "inputs": [
        {
          "internalType": "uint256",
          "name": "queueIndex",
          "type": "uint256"
        },
        {
          "internalType": "enum DistributionStatus",
          "name": "_distributionStatus",
          "type": "uint8"
        }
      ],
      "name": "updateDistributionStatus",
      "outputs": [],
      "stateMutability": "nonpayable",
      "type": "function"
    },
    {
      "inputs": [
        {
          "internalType": "address",
          "name": "_owner",
          "type": "address"
        }
      ],
      "name": "updateOwner",
      "outputs": [],
      "stateMutability": "nonpayable",
      "type": "function"
    }
  ],
  "bytecode": "0x608060405234801561001057600080fd5b50604051610bc3380380610bc38339818101604052810190610032919061011c565b336000806101000a81548173ffffffffffffffffffffffffffffffffffffffff021916908373ffffffffffffffffffffffffffffffffffffffff16021790555080600160006101000a81548173ffffffffffffffffffffffffffffffffffffffff021916908373ffffffffffffffffffffffffffffffffffffffff16021790555050610149565b600080fd5b600073ffffffffffffffffffffffffffffffffffffffff82169050919050565b60006100e9826100be565b9050919050565b6100f9816100de565b811461010457600080fd5b50565b600081519050610116816100f0565b92915050565b600060208284031215610132576101316100b9565b5b600061014084828501610107565b91505092915050565b610a6b806101586000396000f3fe608060405234801561001057600080fd5b50600436106100885760003560e01c80638da5cb5b1161005b5780638da5cb5b146100ed578063acf8c9081461010b578063ddf0b00914610127578063fd38f0431461015957610088565b80633471b3371461008d578063503702f4146100ab5780637c55f0bd146100c7578063880cdc31146100d1575b600080fd5b610095610177565b6040516100a2919061073b565b60405180910390f35b6100c560048036038101906100c091906107ac565b610184565b005b6100cf610341565b005b6100eb60048036038101906100e6919061084a565b610472565b005b6100f5610571565b6040516101029190610886565b60405180910390f35b6101256004803603810190610120919061084a565b610595565b005b610141600480360381019061013c91906108a1565b610695565b60405161015093929190610945565b60405180910390f35b6101616106fc565b60405161016e9190610886565b60405180910390f35b6000600280549050905090565b60008054906101000a900473ffffffffffffffffffffffffffffffffffffffff1673ffffffffffffffffffffffffffffffffffffffff163373ffffffffffffffffffffffffffffffffffffffff1614610209576040517f6253c6d500000000000000000000000000000000000000000000000000000000815260040160405180910390fd5b60006002838154811061021f5761021e61097c565b5b9060005260206000209060020201604051806060016040529081600082015481526020016001820160009054906101000a900473ffffffffffffffffffffffffffffffffffffffff1673ffffffffffffffffffffffffffffffffffffffff1673ffffffffffffffffffffffffffffffffffffffff1681526020016001820160149054906101000a900460ff1660038111156102bd576102bc6108ce565b5b60038111156102cf576102ce6108ce565b5b81525050905081816040019060038111156102ed576102ec6108ce565b5b90816003811115610301576103006108ce565b5b815250507f38b8d2462768eb0c867b00a633de7efc9e7892ea2170c8c81328d8cb30fa0529816040516103349190610a1a565b60405180910390a1505050565b600060405180606001604052804281526020013373ffffffffffffffffffffffffffffffffffffffff16815260200160006003811115610384576103836108ce565b5b815250905060028190806001815401808255809150506001900390600052602060002090600202016000909190919091506000820151816000015560208201518160010160006101000a81548173ffffffffffffffffffffffffffffffffffffffff021916908373ffffffffffffffffffffffffffffffffffffffff16021790555060408201518160010160146101000a81548160ff02191690836003811115610431576104306108ce565b5b021790555050507f87b960ecf11eeabe0b9e2fa4843437f392f9ce16103e0001ff7ce1dd676f6250816040516104679190610a1a565b60405180910390a150565b60008054906101000a900473ffffffffffffffffffffffffffffffffffffffff1673ffffffffffffffffffffffffffffffffffffffff163373ffffffffffffffffffffffffffffffffffffffff16146104f7576040517f5fc483c500000000000000000000000000000000000000000000000000000000815260040160405180910390fd5b806000806101000a81548173ffffffffffffffffffffffffffffffffffffffff021916908373ffffffffffffffffffffffffffffffffffffffff1602179055507f4ffd725fc4a22075e9ec71c59edf9c38cdeb588a91b24fc5b61388c5be41282b816040516105669190610886565b60405180910390a150565b60008054906101000a900473ffffffffffffffffffffffffffffffffffffffff1681565b60008054906101000a900473ffffffffffffffffffffffffffffffffffffffff1673ffffffffffffffffffffffffffffffffffffffff163373ffffffffffffffffffffffffffffffffffffffff161461061a576040517f5fc483c500000000000000000000000000000000000000000000000000000000815260040160405180910390fd5b80600160006101000a81548173ffffffffffffffffffffffffffffffffffffffff021916908373ffffffffffffffffffffffffffffffffffffffff1602179055507f2ca1c89584b77268c72eefab1286890b5d8131e0b9629125aa856ade746deaa68160405161068a9190610886565b60405180910390a150565b600281815481106106a557600080fd5b90600052602060002090600202016000915090508060000154908060010160009054906101000a900473ffffffffffffffffffffffffffffffffffffffff16908060010160149054906101000a900460ff16905083565b600160009054906101000a900473ffffffffffffffffffffffffffffffffffffffff1681565b6000819050919050565b61073581610722565b82525050565b6000602082019050610750600083018461072c565b92915050565b600080fd5b61076481610722565b811461076f57600080fd5b50565b6000813590506107818161075b565b92915050565b6004811061079457600080fd5b50565b6000813590506107a681610787565b92915050565b600080604083850312156107c3576107c2610756565b5b60006107d185828601610772565b92505060206107e285828601610797565b9150509250929050565b600073ffffffffffffffffffffffffffffffffffffffff82169050919050565b6000610817826107ec565b9050919050565b6108278161080c565b811461083257600080fd5b50565b6000813590506108448161081e565b92915050565b6000602082840312156108605761085f610756565b5b600061086e84828501610835565b91505092915050565b6108808161080c565b82525050565b600060208201905061089b6000830184610877565b92915050565b6000602082840312156108b7576108b6610756565b5b60006108c584828501610772565b91505092915050565b7f4e487b7100000000000000000000000000000000000000000000000000000000600052602160045260246000fd5b6004811061090e5761090d6108ce565b5b50565b600081905061091f826108fd565b919050565b600061092f82610911565b9050919050565b61093f81610924565b82525050565b600060608201905061095a600083018661072c565b6109676020830185610877565b6109746040830184610936565b949350505050565b7f4e487b7100000000000000000000000000000000000000000000000000000000600052603260045260246000fd5b6109b481610722565b82525050565b6109c38161080c565b82525050565b6109d281610924565b82525050565b6060820160008201516109ee60008501826109ab565b506020820151610a0160208501826109ba565b506040820151610a1460408501826109c9565b50505050565b6000606082019050610a2f60008301846109d8565b9291505056fea2646970667358221220bc38c2144b3d9d7ce7f134b66f4c127fe0cbf80bd3d1800e24ab7bdb6361e5e064736f6c63430008180033",
  "linkReferences": {},
  "deployedLinkReferences": {}
}