{
  "_format": "hh-sol-artifact-1",
  "contractName": "CommunityFund",
  "sourceName": "contracts/sample/CommunityFund.sol",
  "abi": [
    {
      "inputs": [
        {
          "internalType": "address",
          "name": "sponsorshipQueue_",
          "type": "address"
        }
      ],
      "stateMutability": "nonpayable",
      "type": "constructor"
    },
    {
      "inputs": [
        {
          "internalType": "uint256",
          "name": "balance",
          "type": "uint256"
        }
      ],
      "name": "InsufficientFunds",
      "type": "error"
    },
    {
      "inputs": [],
      "name": "fundSponsorship",
      "outputs": [],
      "stateMutability": "nonpayable",
      "type": "function"
    },
    {
      "inputs": [],
      "name": "sponsorshipQueue",
      "outputs": [
        {
          "internalType": "contract ISponsorshipQueue",
          "name": "",
          "type": "address"
        }
      ],
      "stateMutability": "view",
      "type": "function"
    }
  ],
  "bytecode": "0x60a0604052348015600f57600080fd5b50604051610285380380610285833981016040819052602c91603c565b6001600160a01b0316608052606a565b600060208284031215604d57600080fd5b81516001600160a01b0381168114606357600080fd5b9392505050565b6080516101f461009160003960008181604001528181608a015261013201526101f46000f3fe608060405234801561001057600080fd5b50600436106100365760003560e01c8063177df86b1461003b578063e0dca47b1461007e575b600080fd5b6100627f000000000000000000000000000000000000000000000000000000000000000081565b6040516001600160a01b03909116815260200160405180910390f35b610086610088565b005b7f00000000000000000000000000000000000000000000000000000000000000006001600160a01b031663d6ed2f066040518163ffffffff1660e01b8152600401602060405180830381865afa1580156100e6573d6000803e3d6000fd5b505050506040513d601f19601f8201168201806040525081019061010a91906101a5565b471015610130576040516365bc667160e11b815247600482015260240160405180910390fd5b7f00000000000000000000000000000000000000000000000000000000000000006001600160a01b0316636e28e29c6040518163ffffffff1660e01b8152600401600060405180830381600087803b15801561018b57600080fd5b505af115801561019f573d6000803e3d6000fd5b50505050565b6000602082840312156101b757600080fd5b505191905056fea2646970667358221220a54513f696ec093f88f4883b9c165821e4d7de27bb8d94f950b50ebcf03bf06b64736f6c634300081e0033",
  "linkReferences": {},
  "deployedLinkReferences": {}
}