{
  "_format": "hh-sol-artifact-1",
  "contractName": "CommunityFund",
  "sourceName": "contracts/sample/CommunityFund.sol",
  "abi": [
    {
      "inputs": [
        {
          "internalType": "address",
          "name": "sponsorshipQueue_",
          "type": "address"
        }
      ],
      "stateMutability": "nonpayable",
      "type": "constructor"
    },
    {
      "inputs": [
        {
          "internalType": "uint256",
          "name": "",
          "type": "uint256"
        }
      ],
      "name": "InsufficientFunds",
      "type": "error"
    },
    {
      "anonymous": false,
      "inputs": [
        {
          "indexed": false,
          "internalType": "address",
          "name": "",
          "type": "address"
        },
        {
          "indexed": false,
          "internalType": "uint256",
          "name": "",
          "type": "uint256"
        }
      ],
      "name": "Received",
      "type": "event"
    },
    {
      "inputs": [],
      "name": "fundSponsorship",
      "outputs": [],
      "stateMutability": "nonpayable",
      "type": "function"
    },
    {
      "inputs": [],
      "name": "sponsorshipQueue",
      "outputs": [
        {
          "internalType": "contract ISponsorshipQueue",
          "name": "",
          "type": "address"
        }
      ],
      "stateMutability": "view",
      "type": "function"
    },
    {
      "stateMutability": "payable",
      "type": "receive"
    }
  ],
  "bytecode": "0x60a0604052348015600f57600080fd5b506040516102d53803806102d5833981016040819052602c91603c565b6001600160a01b0316608052606a565b600060208284031215604d57600080fd5b81516001600160a01b0381168114606357600080fd5b9392505050565b6080516102446100916000396000818160830152818160da015261018201526102446000f3fe60806040526004361061002d5760003560e01c8063177df86b14610071578063e0dca47b146100c157600080fd5b3661006c57604080513381523460208201527f88a5966d370b9919b20f3e2c13ff65706f196a4e32cc2c12bf57088f88525874910160405180910390a1005b600080fd5b34801561007d57600080fd5b506100a57f000000000000000000000000000000000000000000000000000000000000000081565b6040516001600160a01b03909116815260200160405180910390f35b3480156100cd57600080fd5b506100d66100d8565b005b7f00000000000000000000000000000000000000000000000000000000000000006001600160a01b031663d6ed2f066040518163ffffffff1660e01b8152600401602060405180830381865afa158015610136573d6000803e3d6000fd5b505050506040513d601f19601f8201168201806040525081019061015a91906101f5565b471015610180576040516365bc667160e11b815247600482015260240160405180910390fd5b7f00000000000000000000000000000000000000000000000000000000000000006001600160a01b0316636e28e29c6040518163ffffffff1660e01b8152600401600060405180830381600087803b1580156101db57600080fd5b505af11580156101ef573d6000803e3d6000fd5b50505050565b60006020828403121561020757600080fd5b505191905056fea264697066735822122017634d07645998b2a06732300e27d96d3b2c46deca7fd87936ad837211d4965764736f6c634300081e0033",
  "linkReferences": {},
  "deployedLinkReferences": {}
}