{
  "_format": "hh-sol-artifact-1",
  "contractName": "DistributionQueue",
  "sourceName": "contracts/DistributionQueue.sol",
  "abi": [
    {
      "inputs": [
        {
          "internalType": "address",
          "name": "_languages",
          "type": "address"
        }
      ],
      "stateMutability": "nonpayable",
      "type": "constructor"
    },
    {
      "inputs": [],
      "name": "InvalidLanguageCode",
      "type": "error"
    },
    {
      "inputs": [],
      "name": "OnlyOwner",
      "type": "error"
    },
    {
      "anonymous": false,
      "inputs": [
        {
          "components": [
            {
              "internalType": "string",
              "name": "languageCode",
              "type": "string"
            },
            {
              "internalType": "string",
              "name": "androidId",
              "type": "string"
            },
            {
              "internalType": "uint256",
              "name": "timestamp",
              "type": "uint256"
            },
            {
              "internalType": "address",
              "name": "distributor",
              "type": "address"
            }
          ],
          "indexed": false,
          "internalType": "struct Distribution",
          "name": "distribution",
          "type": "tuple"
        }
      ],
      "name": "DistributionAdded",
      "type": "event"
    },
    {
      "anonymous": false,
      "inputs": [
        {
          "indexed": false,
          "internalType": "address",
          "name": "owner",
          "type": "address"
        }
      ],
      "name": "OwnerUpdated",
      "type": "event"
    },
    {
      "inputs": [
        {
          "internalType": "string",
          "name": "languageCode",
          "type": "string"
        },
        {
          "internalType": "string",
          "name": "androidId",
          "type": "string"
        }
      ],
      "name": "addDistribution",
      "outputs": [],
      "stateMutability": "nonpayable",
      "type": "function"
    },
    {
      "inputs": [],
      "name": "getQueueCount",
      "outputs": [
        {
          "internalType": "uint256",
          "name": "",
          "type": "uint256"
        }
      ],
      "stateMutability": "view",
      "type": "function"
    },
    {
      "inputs": [],
      "name": "languages",
      "outputs": [
        {
          "internalType": "contract ILanguages",
          "name": "",
          "type": "address"
        }
      ],
      "stateMutability": "view",
      "type": "function"
    },
    {
      "inputs": [],
      "name": "owner",
      "outputs": [
        {
          "internalType": "address",
          "name": "",
          "type": "address"
        }
      ],
      "stateMutability": "view",
      "type": "function"
    },
    {
      "inputs": [
        {
          "internalType": "address",
          "name": "_owner",
          "type": "address"
        }
      ],
      "name": "updateOwner",
      "outputs": [],
      "stateMutability": "nonpayable",
      "type": "function"
    }
  ],
  "bytecode": "0x6080604052348015600f57600080fd5b50604051610754380380610754833981016040819052602c91605e565b60008054336001600160a01b031991821617909155600180549091166001600160a01b0392909216919091179055608c565b600060208284031215606f57600080fd5b81516001600160a01b0381168114608557600080fd5b9392505050565b6106b98061009b6000396000f3fe608060405234801561001057600080fd5b50600436106100575760003560e01c80631a7d661f1461005c5780632972a64c146100715780633471b337146100a1578063880cdc31146100b25780638da5cb5b146100c5575b600080fd5b61006f61006a366004610388565b6100d8565b005b600154610084906001600160a01b031681565b6040516001600160a01b0390911681526020015b60405180910390f35b600254604051908152602001610098565b61006f6100c03660046103f9565b6102c0565b600054610084906001600160a01b031681565b60015460405163032ae28760e51b81526001600160a01b039091169063655c50e09061010a9087908790600401610429565b602060405180830381865afa158015610127573d6000803e3d6000fd5b505050506040513d601f19601f8201168201806040525081019061014b9190610458565b610168576040516342330a5960e11b815260040160405180910390fd5b6040805160a06020601f87018190040282018101909252608081018581526000928291908890889081908501838280828437600092019190915250505090825250604080516020601f8701819004810282018101909252858152918101919086908690819084018382808284376000920182905250938552505042602084015250336040909201919091526002805460018101825591528151919250829160049091027f405787fa12a823e0f2b7631cc41b3ba8828b3321ca811111fa75cd3aa3bb5ace0190819061023a9082610519565b506020820151600182019061024f9082610519565b506040828101516002830155606090920151600390910180546001600160a01b0319166001600160a01b03909216919091179055517fe20de5d5eb69194b5940b1f9b662b126c26bfe912646aaf8608c13fdfef362a9906102b190839061061e565b60405180910390a15050505050565b6000546001600160a01b031633146102eb57604051635fc483c560e01b815260040160405180910390fd5b600080546001600160a01b0319166001600160a01b0383169081179091556040519081527f4ffd725fc4a22075e9ec71c59edf9c38cdeb588a91b24fc5b61388c5be41282b9060200160405180910390a150565b60008083601f84011261035157600080fd5b50813567ffffffffffffffff81111561036957600080fd5b60208301915083602082850101111561038157600080fd5b9250929050565b6000806000806040858703121561039e57600080fd5b843567ffffffffffffffff8111156103b557600080fd5b6103c18782880161033f565b909550935050602085013567ffffffffffffffff8111156103e157600080fd5b6103ed8782880161033f565b95989497509550505050565b60006020828403121561040b57600080fd5b81356001600160a01b038116811461042257600080fd5b9392505050565b60208152816020820152818360408301376000818301604090810191909152601f909201601f19160101919050565b60006020828403121561046a57600080fd5b8151801515811461042257600080fd5b634e487b7160e01b600052604160045260246000fd5b600181811c908216806104a457607f821691505b6020821081036104c457634e487b7160e01b600052602260045260246000fd5b50919050565b601f82111561051457806000526020600020601f840160051c810160208510156104f15750805b601f840160051c820191505b8181101561051157600081556001016104fd565b50505b505050565b815167ffffffffffffffff8111156105335761053361047a565b610547816105418454610490565b846104ca565b6020601f82116001811461057b57600083156105635750848201515b600019600385901b1c1916600184901b178455610511565b600084815260208120601f198516915b828110156105ab578785015182556020948501946001909201910161058b565b50848210156105c95786840151600019600387901b60f8161c191681555b50505050600190811b01905550565b6000815180845260005b818110156105fe576020818501810151868301820152016105e2565b506000602082860101526020601f19601f83011685010191505092915050565b60208152600082516080602084015261063a60a08401826105d8565b90506020840151601f1984830301604085015261065782826105d8565b6040860151606086810191909152909501516001600160a01b031660809094019390935250919291505056fea264697066735822122023c6b541df28db8d8b4b14a37712726a8f1aa89a6b0c251eb3a592c788f8b2b664736f6c634300081c0033",
  "linkReferences": {},
  "deployedLinkReferences": {}
}