{
  "_format": "hh-sol-artifact-1",
  "contractName": "DistributionQueue",
  "sourceName": "contracts/DistributionQueue.sol",
  "abi": [
    {
      "inputs": [],
      "stateMutability": "nonpayable",
      "type": "constructor"
    },
    {
      "inputs": [],
      "name": "OnlyOwner",
      "type": "error"
    },
    {
      "anonymous": false,
      "inputs": [
        {
          "components": [
            {
              "internalType": "string",
              "name": "androidId",
              "type": "string"
            },
            {
              "internalType": "string",
              "name": "languageCode",
              "type": "string"
            },
            {
              "internalType": "uint256",
              "name": "timestamp",
              "type": "uint256"
            },
            {
              "internalType": "address",
              "name": "distributor",
              "type": "address"
            }
          ],
          "indexed": false,
          "internalType": "struct Distribution",
          "name": "distribution",
          "type": "tuple"
        }
      ],
      "name": "DistributionAdded",
      "type": "event"
    },
    {
      "anonymous": false,
      "inputs": [
        {
          "indexed": false,
          "internalType": "address",
          "name": "owner",
          "type": "address"
        }
      ],
      "name": "OwnerUpdated",
      "type": "event"
    },
    {
      "inputs": [
        {
          "internalType": "string",
          "name": "androidId",
          "type": "string"
        },
        {
          "internalType": "string",
          "name": "languageCode",
          "type": "string"
        }
      ],
      "name": "addDistribution",
      "outputs": [],
      "stateMutability": "nonpayable",
      "type": "function"
    },
    {
      "inputs": [],
      "name": "getQueueCount",
      "outputs": [
        {
          "internalType": "uint256",
          "name": "",
          "type": "uint256"
        }
      ],
      "stateMutability": "view",
      "type": "function"
    },
    {
      "inputs": [],
      "name": "owner",
      "outputs": [
        {
          "internalType": "address",
          "name": "",
          "type": "address"
        }
      ],
      "stateMutability": "view",
      "type": "function"
    },
    {
      "inputs": [
        {
          "internalType": "address",
          "name": "_owner",
          "type": "address"
        }
      ],
      "name": "updateOwner",
      "outputs": [],
      "stateMutability": "nonpayable",
      "type": "function"
    }
  ],
  "bytecode": "0x6080604052348015600f57600080fd5b50600080546001600160a01b031916331790556105b9806100316000396000f3fe608060405234801561001057600080fd5b506004361061004c5760003560e01c80631a7d661f146100515780633471b33714610066578063880cdc311461007c5780638da5cb5b1461008f575b600080fd5b61006461005f3660046102d9565b6100ba565b005b6001546040519081526020015b60405180910390f35b61006461008a36600461034a565b610211565b6000546100a2906001600160a01b031681565b6040516001600160a01b039091168152602001610073565b6040805160a06020601f87018190040282018101909252608081018581526000928291908890889081908501838280828437600092019190915250505090825250604080516020601f87018190048102820181019092528581529181019190869086908190840183828082843760009201829052509385525050426020840152503360409092019190915260018054808201825591528151919250829160049091027fb10e2d527612073b26eecdfd717e6a320cf44b4afac2b0732d9fcbe2b7fa0cf60190819061018b9082610419565b50602082015160018201906101a09082610419565b506040828101516002830155606090920151600390910180546001600160a01b0319166001600160a01b03909216919091179055517fe20de5d5eb69194b5940b1f9b662b126c26bfe912646aaf8608c13fdfef362a99061020290839061051e565b60405180910390a15050505050565b6000546001600160a01b0316331461023c57604051635fc483c560e01b815260040160405180910390fd5b600080546001600160a01b0319166001600160a01b0383169081179091556040519081527f4ffd725fc4a22075e9ec71c59edf9c38cdeb588a91b24fc5b61388c5be41282b9060200160405180910390a150565b60008083601f8401126102a257600080fd5b50813567ffffffffffffffff8111156102ba57600080fd5b6020830191508360208285010111156102d257600080fd5b9250929050565b600080600080604085870312156102ef57600080fd5b843567ffffffffffffffff81111561030657600080fd5b61031287828801610290565b909550935050602085013567ffffffffffffffff81111561033257600080fd5b61033e87828801610290565b95989497509550505050565b60006020828403121561035c57600080fd5b81356001600160a01b038116811461037357600080fd5b9392505050565b634e487b7160e01b600052604160045260246000fd5b600181811c908216806103a457607f821691505b6020821081036103c457634e487b7160e01b600052602260045260246000fd5b50919050565b601f82111561041457806000526020600020601f840160051c810160208510156103f15750805b601f840160051c820191505b8181101561041157600081556001016103fd565b50505b505050565b815167ffffffffffffffff8111156104335761043361037a565b610447816104418454610390565b846103ca565b6020601f82116001811461047b57600083156104635750848201515b600019600385901b1c1916600184901b178455610411565b600084815260208120601f198516915b828110156104ab578785015182556020948501946001909201910161048b565b50848210156104c95786840151600019600387901b60f8161c191681555b50505050600190811b01905550565b6000815180845260005b818110156104fe576020818501810151868301820152016104e2565b506000602082860101526020601f19601f83011685010191505092915050565b60208152600082516080602084015261053a60a08401826104d8565b90506020840151601f1984830301604085015261055782826104d8565b6040860151606086810191909152909501516001600160a01b031660809094019390935250919291505056fea2646970667358221220ad1670208e2390ca850aecfa870b699a29385b6c0a01531dc9f1fe186e68031f64736f6c634300081c0033",
  "linkReferences": {},
  "deployedLinkReferences": {}
}