{
  "_format": "hh-sol-artifact-1",
  "contractName": "DistributionQueue",
  "sourceName": "contracts/DistributionQueue.sol",
  "abi": [
    {
      "inputs": [
        {
          "internalType": "address",
          "name": "languages_",
          "type": "address"
        }
      ],
      "stateMutability": "nonpayable",
      "type": "constructor"
    },
    {
      "inputs": [],
      "name": "InvalidLanguageCode",
      "type": "error"
    },
    {
      "anonymous": false,
      "inputs": [
        {
          "indexed": false,
          "internalType": "uint24",
          "name": "queueNumber",
          "type": "uint24"
        },
        {
          "indexed": true,
          "internalType": "string",
          "name": "languageCode",
          "type": "string"
        },
        {
          "indexed": true,
          "internalType": "address",
          "name": "distributor",
          "type": "address"
        }
      ],
      "name": "DistributionAdded",
      "type": "event"
    },
    {
      "anonymous": false,
      "inputs": [
        {
          "indexed": false,
          "internalType": "address",
          "name": "",
          "type": "address"
        }
      ],
      "name": "LanguagesUpdated",
      "type": "event"
    },
    {
      "anonymous": false,
      "inputs": [
        {
          "indexed": false,
          "internalType": "address",
          "name": "",
          "type": "address"
        }
      ],
      "name": "OwnerUpdated",
      "type": "event"
    },
    {
      "anonymous": false,
      "inputs": [
        {
          "indexed": false,
          "internalType": "address",
          "name": "",
          "type": "address"
        }
      ],
      "name": "QueueHandlerUpdated",
      "type": "event"
    },
    {
      "inputs": [
        {
          "internalType": "string",
          "name": "languageCode",
          "type": "string"
        },
        {
          "internalType": "string",
          "name": "androidId",
          "type": "string"
        }
      ],
      "name": "addDistribution",
      "outputs": [],
      "stateMutability": "nonpayable",
      "type": "function"
    },
    {
      "inputs": [],
      "name": "dequeue",
      "outputs": [
        {
          "components": [
            {
              "internalType": "string",
              "name": "languageCode",
              "type": "string"
            },
            {
              "internalType": "string",
              "name": "androidId",
              "type": "string"
            },
            {
              "internalType": "uint256",
              "name": "timestamp",
              "type": "uint256"
            },
            {
              "internalType": "address",
              "name": "distributor",
              "type": "address"
            }
          ],
          "internalType": "struct Distribution",
          "name": "",
          "type": "tuple"
        }
      ],
      "stateMutability": "nonpayable",
      "type": "function"
    },
    {
      "inputs": [],
      "name": "getLength",
      "outputs": [
        {
          "internalType": "uint256",
          "name": "",
          "type": "uint256"
        }
      ],
      "stateMutability": "view",
      "type": "function"
    },
    {
      "inputs": [],
      "name": "languages",
      "outputs": [
        {
          "internalType": "contract ILanguages",
          "name": "",
          "type": "address"
        }
      ],
      "stateMutability": "view",
      "type": "function"
    },
    {
      "inputs": [],
      "name": "owner",
      "outputs": [
        {
          "internalType": "address",
          "name": "",
          "type": "address"
        }
      ],
      "stateMutability": "view",
      "type": "function"
    },
    {
      "inputs": [],
      "name": "protocolVersion",
      "outputs": [
        {
          "internalType": "string",
          "name": "",
          "type": "string"
        }
      ],
      "stateMutability": "pure",
      "type": "function"
    },
    {
      "inputs": [
        {
          "internalType": "uint24",
          "name": "",
          "type": "uint24"
        }
      ],
      "name": "queue",
      "outputs": [
        {
          "internalType": "string",
          "name": "languageCode",
          "type": "string"
        },
        {
          "internalType": "string",
          "name": "androidId",
          "type": "string"
        },
        {
          "internalType": "uint256",
          "name": "timestamp",
          "type": "uint256"
        },
        {
          "internalType": "address",
          "name": "distributor",
          "type": "address"
        }
      ],
      "stateMutability": "view",
      "type": "function"
    },
    {
      "inputs": [],
      "name": "queueHandler",
      "outputs": [
        {
          "internalType": "address",
          "name": "",
          "type": "address"
        }
      ],
      "stateMutability": "view",
      "type": "function"
    },
    {
      "inputs": [],
      "name": "queueNumberFront",
      "outputs": [
        {
          "internalType": "uint24",
          "name": "",
          "type": "uint24"
        }
      ],
      "stateMutability": "view",
      "type": "function"
    },
    {
      "inputs": [],
      "name": "queueNumberNext",
      "outputs": [
        {
          "internalType": "uint24",
          "name": "",
          "type": "uint24"
        }
      ],
      "stateMutability": "view",
      "type": "function"
    },
    {
      "inputs": [
        {
          "internalType": "address",
          "name": "languages_",
          "type": "address"
        }
      ],
      "name": "updateLanguages",
      "outputs": [],
      "stateMutability": "nonpayable",
      "type": "function"
    },
    {
      "inputs": [
        {
          "internalType": "address",
          "name": "owner_",
          "type": "address"
        }
      ],
      "name": "updateOwner",
      "outputs": [],
      "stateMutability": "nonpayable",
      "type": "function"
    },
    {
      "inputs": [
        {
          "internalType": "address",
          "name": "queueHandler_",
          "type": "address"
        }
      ],
      "name": "updateQueueHandler",
      "outputs": [],
      "stateMutability": "nonpayable",
      "type": "function"
    }
  ],
  "bytecode": "0x60806040526004805465ffffffffffff19166301000001179055348015602457600080fd5b506040516110613803806110618339810160408190526041916073565b60008054336001600160a01b031991821617909155600180549091166001600160a01b039290921691909117905560a1565b600060208284031215608457600080fd5b81516001600160a01b0381168114609a57600080fd5b9392505050565b610fb1806100b06000396000f3fe608060405234801561001057600080fd5b50600436106100cf5760003560e01c8063880cdc311161008c578063957908d111610066578063957908d1146101c5578063be1c766b146101da578063bea6a849146101f0578063c62a73171461020357600080fd5b8063880cdc311461018c5780638849a4331461019f5780638da5cb5b146101b257600080fd5b806313ae19b3146100d45780631a7d661f146100e95780632972a64c146100fc5780632ae9c6001461012c5780632fb0b65914610153578063423e364914610176575b600080fd5b6100e76100e2366004610b56565b610226565b005b6100e76100f7366004610bcf565b6102f4565b60015461010f906001600160a01b031681565b6040516001600160a01b0390911681526020015b60405180910390f35b6040805180820182526005815264302e392e3160d81b602082015290516101239190610c86565b6004546101629062ffffff1681565b60405162ffffff9091168152602001610123565b600454610162906301000000900462ffffff1681565b6100e761019a366004610b56565b61048e565b60025461010f906001600160a01b031681565b60005461010f906001600160a01b031681565b6101cd610549565b6040516101239190610c99565b6101e2610822565b604051908152602001610123565b6100e76101fe366004610b56565b61084b565b610216610211366004610cfe565b61090a565b6040516101239493929190610d23565b6000546001600160a01b0316331461029f5760405162461bcd60e51b815260206004820152603160248201527f4f6e6c7920746865206f776e65722063616e20736574207468652060717565756044820152706548616e646c657260206164647265737360781b60648201526084015b60405180910390fd5b600280546001600160a01b0319166001600160a01b0383169081179091556040519081527f05ec78f77a1d48e6e47c6b09252624424c3402b3a8e99a48e59f0d710d7e7742906020015b60405180910390a150565b60015460405163032ae28760e51b81526001600160a01b039091169063655c50e0906103269087908790600401610d6a565b602060405180830381865afa158015610343573d6000803e3d6000fd5b505050506040513d601f19601f820116820180604052508101906103679190610d99565b610384576040516342330a5960e11b815260040160405180910390fd5b6040805160a06020601f87018190040282018101909252608081018581526000928291908890889081908501838280828437600092019190915250505090825250604080516020601f87018190048102820181019092528581529181019190869086908190840183828082843760009201919091525050509082525042602082015233604090910152905061041881610a4c565b604051339061042a9087908790610dbb565b6040519081900390206004547fd33308ec65025ea5d1a54083c059b9c10c7d5d89ebd7e7e4b6bf88b741be665690610470906001906301000000900462ffffff16610de1565b60405162ffffff909116815260200160405180910390a35050505050565b6000546001600160a01b031633146104fb5760405162461bcd60e51b815260206004820152602a60248201527f4f6e6c79207468652063757272656e74206f776e65722063616e207365742061604482015269103732bb9037bbb732b960b11b6064820152608401610296565b600080546001600160a01b0319166001600160a01b0383169081179091556040519081527f4ffd725fc4a22075e9ec71c59edf9c38cdeb588a91b24fc5b61388c5be41282b906020016102e9565b61057d604051806080016040528060608152602001606081526020016000815260200160006001600160a01b031681525090565b6002546001600160a01b031633146105f05760405162461bcd60e51b815260206004820152603060248201527f4f6e6c79207468652071756575652068616e646c65722063616e2072656d6f7660448201526f652066726f6d2074686520717565756560801b6064820152608401610296565b60006105fa610822565b116106385760405162461bcd60e51b815260206004820152600e60248201526d517565756520697320656d70747960901b6044820152606401610296565b60045462ffffff1660009081526003602052604080822081516080810190925280548290829061066790610e02565b80601f016020809104026020016040519081016040528092919081815260200182805461069390610e02565b80156106e05780601f106106b5576101008083540402835291602001916106e0565b820191906000526020600020905b8154815290600101906020018083116106c357829003601f168201915b505050505081526020016001820180546106f990610e02565b80601f016020809104026020016040519081016040528092919081815260200182805461072590610e02565b80156107725780601f1061074757610100808354040283529160200191610772565b820191906000526020600020905b81548152906001019060200180831161075557829003601f168201915b505050918352505060028201546020808301919091526003928301546001600160a01b031660409283015260045462ffffff16600090815292905281209192506107bc8282610b00565b6107ca600183016000610b00565b50600060028201819055600390910180546001600160a01b031916905560048054600192906107ff90849062ffffff16610e3c565b92506101000a81548162ffffff021916908362ffffff1602179055508091505090565b6004546000906108419062ffffff808216916301000000900416610de1565b62ffffff16905090565b6000546001600160a01b031633146108bc5760405162461bcd60e51b815260206004820152602e60248201527f4f6e6c7920746865206f776e65722063616e207365742074686520606c616e6760448201526d756167657360206164647265737360901b6064820152608401610296565b600180546001600160a01b0319166001600160a01b0383169081179091556040519081527fa27bcd9ea6a1be02da6027dac62bc65e5a0f8e180f47bc6e3bfbee065b69b4f7906020016102e9565b60036020526000908152604090208054819061092590610e02565b80601f016020809104026020016040519081016040528092919081815260200182805461095190610e02565b801561099e5780601f106109735761010080835404028352916020019161099e565b820191906000526020600020905b81548152906001019060200180831161098157829003601f168201915b5050505050908060010180546109b390610e02565b80601f01602080910402602001604051908101604052809291908181526020018280546109df90610e02565b8015610a2c5780601f10610a0157610100808354040283529160200191610a2c565b820191906000526020600020905b815481529060010190602001808311610a0f57829003601f168201915b5050505060028301546003909301549192916001600160a01b0316905084565b6004546301000000900462ffffff16600090815260036020526040902081518291908190610a7a9082610ebc565b5060208201516001820190610a8f9082610ebc565b5060408201516002820155606090910151600391820180546001600160a01b0319166001600160a01b039092169190911790556004805460019290610ae19084906301000000900462ffffff16610e3c565b92506101000a81548162ffffff021916908362ffffff16021790555050565b508054610b0c90610e02565b6000825580601f10610b1c575050565b601f016020900490600052602060002090810190610b3a9190610b3d565b50565b5b80821115610b525760008155600101610b3e565b5090565b600060208284031215610b6857600080fd5b81356001600160a01b0381168114610b7f57600080fd5b9392505050565b60008083601f840112610b9857600080fd5b50813567ffffffffffffffff811115610bb057600080fd5b602083019150836020828501011115610bc857600080fd5b9250929050565b60008060008060408587031215610be557600080fd5b843567ffffffffffffffff811115610bfc57600080fd5b610c0887828801610b86565b909550935050602085013567ffffffffffffffff811115610c2857600080fd5b610c3487828801610b86565b95989497509550505050565b6000815180845260005b81811015610c6657602081850181015186830182015201610c4a565b506000602082860101526020601f19601f83011685010191505092915050565b602081526000610b7f6020830184610c40565b602081526000825160806020840152610cb560a0840182610c40565b90506020840151601f19848303016040850152610cd28282610c40565b6040860151606086810191909152909501516001600160a01b0316608090940193909352509192915050565b600060208284031215610d1057600080fd5b813562ffffff81168114610b7f57600080fd5b608081526000610d366080830187610c40565b8281036020840152610d488187610c40565b604084019590955250506001600160a01b039190911660609091015292915050565b60208152816020820152818360408301376000818301604090810191909152601f909201601f19160101919050565b600060208284031215610dab57600080fd5b81518015158114610b7f57600080fd5b8183823760009101908152919050565b634e487b7160e01b600052601160045260246000fd5b62ffffff8281168282160390811115610dfc57610dfc610dcb565b92915050565b600181811c90821680610e1657607f821691505b602082108103610e3657634e487b7160e01b600052602260045260246000fd5b50919050565b62ffffff8181168382160190811115610dfc57610dfc610dcb565b634e487b7160e01b600052604160045260246000fd5b601f821115610eb757806000526020600020601f840160051c81016020851015610e945750805b601f840160051c820191505b81811015610eb45760008155600101610ea0565b50505b505050565b815167ffffffffffffffff811115610ed657610ed6610e57565b610eea81610ee48454610e02565b84610e6d565b6020601f821160018114610f1e5760008315610f065750848201515b600019600385901b1c1916600184901b178455610eb4565b600084815260208120601f198516915b82811015610f4e5787850151825560209485019460019092019101610f2e565b5084821015610f6c5786840151600019600387901b60f8161c191681555b50505050600190811b0190555056fea2646970667358221220816b4993b62ee834f8f44f92e552928e64edbcc5457097e78f05575465857eb664736f6c634300081e0033",
  "linkReferences": {},
  "deployedLinkReferences": {}
}