{
  "_format": "hh-sol-artifact-1",
  "contractName": "DistributionProcessor",
  "sourceName": "contracts/sample/DistributionProcessor.sol",
  "abi": [
    {
      "inputs": [
        {
          "internalType": "address",
          "name": "distributionQueue_",
          "type": "address"
        }
      ],
      "stateMutability": "nonpayable",
      "type": "constructor"
    },
    {
      "anonymous": false,
      "inputs": [
        {
          "indexed": true,
          "internalType": "address",
          "name": "importer",
          "type": "address"
        },
        {
          "indexed": false,
          "internalType": "string",
          "name": "languageCode",
          "type": "string"
        },
        {
          "indexed": false,
          "internalType": "string",
          "name": "androidId",
          "type": "string"
        }
      ],
      "name": "DistributionImported",
      "type": "event"
    },
    {
      "anonymous": false,
      "inputs": [
        {
          "indexed": true,
          "internalType": "address",
          "name": "processor",
          "type": "address"
        },
        {
          "indexed": false,
          "internalType": "uint256",
          "name": "count",
          "type": "uint256"
        }
      ],
      "name": "DistributionsProcessed",
      "type": "event"
    },
    {
      "inputs": [],
      "name": "distributionQueue",
      "outputs": [
        {
          "internalType": "contract IDistributionQueue",
          "name": "",
          "type": "address"
        }
      ],
      "stateMutability": "view",
      "type": "function"
    },
    {
      "inputs": [
        {
          "internalType": "string",
          "name": "languageCode",
          "type": "string"
        },
        {
          "internalType": "string",
          "name": "androidId",
          "type": "string"
        }
      ],
      "name": "importDistribution",
      "outputs": [],
      "stateMutability": "nonpayable",
      "type": "function"
    },
    {
      "inputs": [],
      "name": "processDistributions",
      "outputs": [],
      "stateMutability": "nonpayable",
      "type": "function"
    }
  ],
  "bytecode": "0x60a0604052348015600f57600080fd5b50604051610748380380610748833981016040819052602c91603c565b6001600160a01b0316608052606a565b600060208284031215604d57600080fd5b81516001600160a01b0381168114606357600080fd5b9392505050565b6080516106be61008a60003960008181604b015260c101526106be6000f3fe608060405234801561001057600080fd5b50600436106100415760003560e01c806365772def14610046578063b1575b2e14610089578063c224e06014610093575b600080fd5b61006d7f000000000000000000000000000000000000000000000000000000000000000081565b6040516001600160a01b03909116815260200160405180910390f35b6100916100a6565b005b6100916100a136600461036f565b6101d5565b60005b6000546100b8906001906103e0565b811015610183577f00000000000000000000000000000000000000000000000000000000000000006001600160a01b0316631a7d661f6000838154811061010157610101610407565b906000526020600020016001848154811061011e5761011e610407565b906000526020600020016040518363ffffffff1660e01b81526004016101459291906104da565b600060405180830381600087803b15801561015f57600080fd5b505af1158015610173573d6000803e3d6000fd5b5050600190920191506100a99050565b5060005460405190815233907f99c0456ae48c50fee724b8f5ba40df63fa738b80533d3c858480083cce263d3c9060200160405180910390a26101c760008061029a565b6101d36001600061029a565b565b600080546001810182559080527f290decd9548b62a8d60345a988386fc84ba6bc95484008f6362f93160ef3e5630161020f84868361056d565b506001805480820182556000919091527fb10e2d527612073b26eecdfd717e6a320cf44b4afac2b0732d9fcbe2b7fa0cf60161024c82848361056d565b50336001600160a01b03167f7e991bfff5f2dab540dcad191be75ef7fd98703cb87c098518d4f565781a3f0d8585858560405161028c9493929190610656565b60405180910390a250505050565b50805460008255906000526020600020908101906102b891906102bb565b50565b808211156102d85760006102cf82826102dc565b506001016102bb565b5090565b5080546102e89061041d565b6000825580601f106102f8575050565b601f0160209004906000526020600020908101906102b891905b808211156102d85760008155600101610312565b60008083601f84011261033857600080fd5b50813567ffffffffffffffff81111561035057600080fd5b60208301915083602082850101111561036857600080fd5b9250929050565b6000806000806040858703121561038557600080fd5b843567ffffffffffffffff81111561039c57600080fd5b6103a887828801610326565b909550935050602085013567ffffffffffffffff8111156103c857600080fd5b6103d487828801610326565b95989497509550505050565b8181038181111561040157634e487b7160e01b600052601160045260246000fd5b92915050565b634e487b7160e01b600052603260045260246000fd5b600181811c9082168061043157607f821691505b60208210810361045157634e487b7160e01b600052602260045260246000fd5b50919050565b600081546104648161041d565b80855260018216801561047e576001811461049a576104d1565b60ff1983166020870152602082151560051b87010193506104d1565b84600052602060002060005b838110156104c85781546020828a0101526001820191506020810190506104a6565b87016020019450505b50505092915050565b6040815260006104ed6040830185610457565b82810360208401526104ff8185610457565b95945050505050565b634e487b7160e01b600052604160045260246000fd5b601f82111561056857806000526020600020601f840160051c810160208510156105455750805b601f840160051c820191505b818110156105655760008155600101610551565b50505b505050565b67ffffffffffffffff83111561058557610585610508565b61059983610593835461041d565b8361051e565b6000601f8411600181146105cd57600085156105b55750838201355b600019600387901b1c1916600186901b178355610565565b600083815260209020601f19861690835b828110156105fe57868501358255602094850194600190920191016105de565b508682101561061b5760001960f88860031b161c19848701351681555b505060018560011b0183555050505050565b81835281816020850137506000828201602090810191909152601f909101601f19169091010190565b60408152600061066a60408301868861062d565b828103602084015261067d81858761062d565b97965050505050505056fea2646970667358221220ef3c9f22630645153f924cced5820f9cbf8719369633ccc4940c21e7b49d83b764736f6c634300081e0033",
  "linkReferences": {},
  "deployedLinkReferences": {}
}