{
  "_format": "hh-sol-artifact-1",
  "contractName": "DistributionVerifier",
  "sourceName": "contracts/DistributionVerifier.sol",
  "abi": [
    {
      "inputs": [
        {
          "internalType": "address",
          "name": "roles_",
          "type": "address"
        }
      ],
      "stateMutability": "nonpayable",
      "type": "constructor"
    },
    {
      "anonymous": false,
      "inputs": [
        {
          "indexed": false,
          "internalType": "uint24",
          "name": "queueIndex",
          "type": "uint24"
        },
        {
          "indexed": false,
          "internalType": "address",
          "name": "operator",
          "type": "address"
        }
      ],
      "name": "DistributionApproved",
      "type": "event"
    },
    {
      "anonymous": false,
      "inputs": [
        {
          "indexed": false,
          "internalType": "uint24",
          "name": "queueIndex",
          "type": "uint24"
        },
        {
          "indexed": false,
          "internalType": "address",
          "name": "operator",
          "type": "address"
        }
      ],
      "name": "DistributionRejected",
      "type": "event"
    },
    {
      "anonymous": false,
      "inputs": [
        {
          "indexed": false,
          "internalType": "address",
          "name": "owner",
          "type": "address"
        }
      ],
      "name": "OwnerUpdated",
      "type": "event"
    },
    {
      "anonymous": false,
      "inputs": [
        {
          "indexed": false,
          "internalType": "address",
          "name": "roles",
          "type": "address"
        }
      ],
      "name": "RolesUpdated",
      "type": "event"
    },
    {
      "inputs": [
        {
          "internalType": "uint24",
          "name": "queueIndex",
          "type": "uint24"
        }
      ],
      "name": "isDistributionApproved",
      "outputs": [
        {
          "internalType": "bool",
          "name": "",
          "type": "bool"
        }
      ],
      "stateMutability": "view",
      "type": "function"
    },
    {
      "inputs": [],
      "name": "owner",
      "outputs": [
        {
          "internalType": "address",
          "name": "",
          "type": "address"
        }
      ],
      "stateMutability": "view",
      "type": "function"
    },
    {
      "inputs": [],
      "name": "roles",
      "outputs": [
        {
          "internalType": "contract IRoles",
          "name": "",
          "type": "address"
        }
      ],
      "stateMutability": "view",
      "type": "function"
    },
    {
      "inputs": [
        {
          "internalType": "address",
          "name": "owner_",
          "type": "address"
        }
      ],
      "name": "updateOwner",
      "outputs": [],
      "stateMutability": "nonpayable",
      "type": "function"
    },
    {
      "inputs": [
        {
          "internalType": "address",
          "name": "roles_",
          "type": "address"
        }
      ],
      "name": "updateRoles",
      "outputs": [],
      "stateMutability": "nonpayable",
      "type": "function"
    },
    {
      "inputs": [
        {
          "internalType": "uint24",
          "name": "queueIndex",
          "type": "uint24"
        },
        {
          "internalType": "bool",
          "name": "approved",
          "type": "bool"
        }
      ],
      "name": "verifyDistribution",
      "outputs": [],
      "stateMutability": "nonpayable",
      "type": "function"
    }
  ],
  "bytecode": "0x6080604052348015600f57600080fd5b50604051610656380380610656833981016040819052602c91605e565b60008054336001600160a01b031991821617909155600180549091166001600160a01b0392909216919091179055608c565b600060208284031215606f57600080fd5b81516001600160a01b0381168114608557600080fd5b9392505050565b6105bb8061009b6000396000f3fe608060405234801561001057600080fd5b50600436106100625760003560e01c8063392f5f64146100675780633a80760a14610097578063880cdc31146100ac5780638da5cb5b146100bf578063cf714d3b146100d2578063d01bb06e146100e5575b600080fd5b60015461007a906001600160a01b031681565b6040516001600160a01b0390911681526020015b60405180910390f35b6100aa6100a5366004610490565b61012e565b005b6100aa6100ba366004610490565b6101f5565b60005461007a906001600160a01b031681565b6100aa6100e03660046104e9565b6102b0565b61011e6100f3366004610520565b62ffffff1660009081526003602090815260408083205460029092529091205460ff91821691161190565b604051901515815260200161008e565b6000546001600160a01b031633146101a05760405162461bcd60e51b815260206004820152602a60248201527f4f6e6c7920746865206f776e65722063616e20736574207468652060726f6c656044820152697360206164647265737360b01b60648201526084015b60405180910390fd5b600180546001600160a01b0319166001600160a01b0383169081179091556040519081527f0fb53df5eaab7f6dbb10bfa2951418c0e50c8f11ea7298e2a159c0022b848005906020015b60405180910390a150565b6000546001600160a01b031633146102625760405162461bcd60e51b815260206004820152602a60248201527f4f6e6c79207468652063757272656e74206f776e65722063616e207365742061604482015269103732bb9037bbb732b960b11b6064820152608401610197565b600080546001600160a01b0319166001600160a01b0383169081179091556040519081527f4ffd725fc4a22075e9ec71c59edf9c38cdeb588a91b24fc5b61388c5be41282b906020016101ea565b600154604051633e800ddf60e11b81523360048201526001600160a01b0390911690637d001bbe90602401602060405180830381865afa1580156102f8573d6000803e3d6000fd5b505050506040513d601f19601f8201168201806040525081019061031c919061053b565b6103845760405162461bcd60e51b815260206004820152603360248201527f4f6e6c792044414f206f70657261746f72732063616e20617070726f76652f72604482015272656a65637420646973747269627574696f6e7360681b6064820152608401610197565b80156104115762ffffff821660009081526002602052604081208054600192906103b290849060ff16610558565b825460ff9182166101009390930a9283029190920219909116179055506040805162ffffff841681523360208201527f6d16b07b3bd2b3b396d53ae8a6a61b0aa8110181007d5928f49fd30963f912ed91015b60405180910390a15050565b62ffffff8216600090815260036020526040812080546001929061043990849060ff16610558565b825460ff9182166101009390930a9283029190920219909116179055506040805162ffffff841681523360208201527fb8de99488aba4b1b8c55d235a0627d4a50ecbf34e7bf81a7c03fa28ba983cf2c9101610405565b6000602082840312156104a257600080fd5b81356001600160a01b03811681146104b957600080fd5b9392505050565b803562ffffff811681146104d357600080fd5b919050565b80151581146104e657600080fd5b50565b600080604083850312156104fc57600080fd5b610505836104c0565b91506020830135610515816104d8565b809150509250929050565b60006020828403121561053257600080fd5b6104b9826104c0565b60006020828403121561054d57600080fd5b81516104b9816104d8565b60ff818116838216019081111561057f57634e487b7160e01b600052601160045260246000fd5b9291505056fea26469706673582212204785df752183ef1b71dbbff13a6e54304c564a7e3e12884fda8d8a71e6bc4cdc64736f6c634300081c0033",
  "linkReferences": {},
  "deployedLinkReferences": {}
}