{
  "_format": "hh-sol-artifact-1",
  "contractName": "QueueHandler",
  "sourceName": "contracts/QueueHandler.sol",
  "abi": [
    {
      "inputs": [
        {
          "internalType": "address",
          "name": "sponsorshipQueue_",
          "type": "address"
        },
        {
          "internalType": "address",
          "name": "distributionQueue_",
          "type": "address"
        },
        {
          "internalType": "address",
          "name": "distributionVerifier_",
          "type": "address"
        }
      ],
      "stateMutability": "nonpayable",
      "type": "constructor"
    },
    {
      "anonymous": false,
      "inputs": [
        {
          "indexed": false,
          "internalType": "address",
          "name": "",
          "type": "address"
        }
      ],
      "name": "DistributionVerifierUpdated",
      "type": "event"
    },
    {
      "anonymous": false,
      "inputs": [
        {
          "indexed": false,
          "internalType": "address",
          "name": "",
          "type": "address"
        }
      ],
      "name": "OwnerUpdated",
      "type": "event"
    },
    {
      "anonymous": false,
      "inputs": [
        {
          "components": [
            {
              "internalType": "string",
              "name": "languageCode",
              "type": "string"
            },
            {
              "internalType": "string",
              "name": "androidId",
              "type": "string"
            },
            {
              "internalType": "uint256",
              "name": "timestamp",
              "type": "uint256"
            },
            {
              "internalType": "address",
              "name": "distributor",
              "type": "address"
            }
          ],
          "indexed": false,
          "internalType": "struct Distribution",
          "name": "",
          "type": "tuple"
        },
        {
          "components": [
            {
              "internalType": "uint256",
              "name": "estimatedCost",
              "type": "uint256"
            },
            {
              "internalType": "uint256",
              "name": "timestamp",
              "type": "uint256"
            },
            {
              "internalType": "address",
              "name": "sponsor",
              "type": "address"
            }
          ],
          "indexed": false,
          "internalType": "struct Sponsorship",
          "name": "",
          "type": "tuple"
        }
      ],
      "name": "QueuePairProcessed",
      "type": "event"
    },
    {
      "anonymous": false,
      "inputs": [
        {
          "indexed": false,
          "internalType": "address",
          "name": "",
          "type": "address"
        }
      ],
      "name": "RolesUpdated",
      "type": "event"
    },
    {
      "inputs": [],
      "name": "distributionQueue",
      "outputs": [
        {
          "internalType": "contract DistributionQueue",
          "name": "",
          "type": "address"
        }
      ],
      "stateMutability": "view",
      "type": "function"
    },
    {
      "inputs": [],
      "name": "distributionVerifier",
      "outputs": [
        {
          "internalType": "contract IDistributionVerifier",
          "name": "",
          "type": "address"
        }
      ],
      "stateMutability": "view",
      "type": "function"
    },
    {
      "inputs": [],
      "name": "owner",
      "outputs": [
        {
          "internalType": "address",
          "name": "",
          "type": "address"
        }
      ],
      "stateMutability": "view",
      "type": "function"
    },
    {
      "inputs": [],
      "name": "processQueuePair",
      "outputs": [],
      "stateMutability": "nonpayable",
      "type": "function"
    },
    {
      "inputs": [],
      "name": "protocolVersion",
      "outputs": [
        {
          "internalType": "string",
          "name": "",
          "type": "string"
        }
      ],
      "stateMutability": "pure",
      "type": "function"
    },
    {
      "inputs": [],
      "name": "removeRejectedDistribution",
      "outputs": [],
      "stateMutability": "nonpayable",
      "type": "function"
    },
    {
      "inputs": [],
      "name": "sponsorshipQueue",
      "outputs": [
        {
          "internalType": "contract SponsorshipQueue",
          "name": "",
          "type": "address"
        }
      ],
      "stateMutability": "view",
      "type": "function"
    },
    {
      "inputs": [
        {
          "internalType": "address",
          "name": "distributionVerifier_",
          "type": "address"
        }
      ],
      "name": "updateDistributionVerifier",
      "outputs": [],
      "stateMutability": "nonpayable",
      "type": "function"
    },
    {
      "inputs": [
        {
          "internalType": "address",
          "name": "owner_",
          "type": "address"
        }
      ],
      "name": "updateOwner",
      "outputs": [],
      "stateMutability": "nonpayable",
      "type": "function"
    }
  ],
  "bytecode": "0x60c060405234801561001057600080fd5b50604051610fbc380380610fbc83398101604081905261002f91610086565b600080546001600160a01b031990811633179091556001600160a01b0393841660805291831660a052600180549190931691161790556100c9565b80516001600160a01b038116811461008157600080fd5b919050565b60008060006060848603121561009b57600080fd5b6100a48461006a565b92506100b26020850161006a565b91506100c06040850161006a565b90509250925092565b60805160a051610e9061012c6000396000818161012d0152818161018c015281816102360152818161046c01528181610642015281816106e30152610851015260008181609d0152818161038d015281816104f801526105990152610e906000f3fe608060405234801561001057600080fd5b50600436106100935760003560e01c80634de6087c116100665780634de6087c1461011557806365772def14610128578063880cdc311461014f5780638da5cb5b14610162578063a815f7a21461017557600080fd5b8063177df86b146100985780632603b407146100dc5780632ae9c600146100e65780633b49a26d1461010d575b600080fd5b6100bf7f000000000000000000000000000000000000000000000000000000000000000081565b6040516001600160a01b0390911681526020015b60405180910390f35b6100e4610188565b005b60408051808201825260058152640302e382e360dc1b602082015290516100d39190610abc565b6100e461063e565b6100e4610123366004610aee565b6108dc565b6100bf7f000000000000000000000000000000000000000000000000000000000000000081565b6100e461015d366004610aee565b6109b1565b6000546100bf906001600160a01b031681565b6001546100bf906001600160a01b031681565b60007f00000000000000000000000000000000000000000000000000000000000000006001600160a01b031663be1c766b6040518163ffffffff1660e01b8152600401602060405180830381865afa1580156101e8573d6000803e3d6000fd5b505050506040513d601f19601f8201168201806040525081019061020c9190610b0b565b116102325760405162461bcd60e51b815260040161022990610b24565b60405180910390fd5b60007f00000000000000000000000000000000000000000000000000000000000000006001600160a01b0316632fb0b6596040518163ffffffff1660e01b8152600401602060405180830381865afa158015610292573d6000803e3d6000fd5b505050506040513d601f19601f820116820180604052508101906102b69190610b6a565b60015460405163680dd83760e11b815262ffffff831660048201529192506001600160a01b03169063d01bb06e90602401602060405180830381865afa158015610304573d6000803e3d6000fd5b505050506040513d601f19601f820116820180604052508101906103289190610b8f565b6103895760405162461bcd60e51b815260206004820152602c60248201527f4f6e6c7920617070726f76656420646973747269627574696f6e732063616e2060448201526b1899481c1c9bd8d95cdcd95960a21b6064820152608401610229565b60007f00000000000000000000000000000000000000000000000000000000000000006001600160a01b031663be1c766b6040518163ffffffff1660e01b8152600401602060405180830381865afa1580156103e9573d6000803e3d6000fd5b505050506040513d601f19601f8201168201806040525081019061040d9190610b0b565b116104685760405162461bcd60e51b815260206004820152602560248201527f5468652073706f6e736f72736869702071756575652063616e6e6f7420626520604482015264656d70747960d81b6064820152608401610229565b60007f00000000000000000000000000000000000000000000000000000000000000006001600160a01b031663957908d16040518163ffffffff1660e01b81526004016000604051808303816000875af11580156104ca573d6000803e3d6000fd5b505050506040513d6000823e601f3d908101601f191682016040526104f29190810190610c7b565b905060007f00000000000000000000000000000000000000000000000000000000000000006001600160a01b031663957908d16040518163ffffffff1660e01b81526004016060604051808303816000875af1158015610556573d6000803e3d6000fd5b505050506040513d601f19601f8201168201806040525081019061057a9190610d39565b6060830151604051630e8042bd60e21b81529192506001600160a01b037f00000000000000000000000000000000000000000000000000000000000000001691633a010af4916105ce918590600401610d9b565b600060405180830381600087803b1580156105e857600080fd5b505af11580156105fc573d6000803e3d6000fd5b505050507fc0bcc289d3a48478cddfad64f9d4ced83ef04c93d79fd79f9ac4dd1da7e3ac608282604051610631929190610dd5565b60405180910390a1505050565b60007f00000000000000000000000000000000000000000000000000000000000000006001600160a01b031663be1c766b6040518163ffffffff1660e01b8152600401602060405180830381865afa15801561069e573d6000803e3d6000fd5b505050506040513d601f19601f820116820180604052508101906106c29190610b0b565b116106df5760405162461bcd60e51b815260040161022990610b24565b60007f00000000000000000000000000000000000000000000000000000000000000006001600160a01b0316632fb0b6596040518163ffffffff1660e01b8152600401602060405180830381865afa15801561073f573d6000803e3d6000fd5b505050506040513d601f19601f820116820180604052508101906107639190610b6a565b600154604051632385ac3b60e01b815262ffffff831660048201529192506000916001600160a01b0390911690632385ac3b90602401602060405180830381865afa1580156107b6573d6000803e3d6000fd5b505050506040513d601f19601f820116820180604052508101906107da9190610b8f565b90508061084f5760405162461bcd60e51b815260206004820152603960248201527f4f6e6c792072656a656374656420646973747269627574696f6e732063616e2060448201527f62652072656d6f7665642066726f6d20746865207175657565000000000000006064820152608401610229565b7f00000000000000000000000000000000000000000000000000000000000000006001600160a01b031663957908d16040518163ffffffff1660e01b81526004016000604051808303816000875af11580156108af573d6000803e3d6000fd5b505050506040513d6000823e601f3d908101601f191682016040526108d79190810190610c7b565b505050565b6000546001600160a01b0316331461095c5760405162461bcd60e51b815260206004820152603960248201527f4f6e6c7920746865206f776e65722063616e207365742074686520606469737460448201527f7269627574696f6e5665726966696572602061646472657373000000000000006064820152608401610229565b600180546001600160a01b0319166001600160a01b0383169081179091556040519081527f6cc0d3de1edeba7407979d71fe895d856235ad36361847ffa46fd7a3b0d123c7906020015b60405180910390a150565b6000546001600160a01b03163314610a1e5760405162461bcd60e51b815260206004820152602a60248201527f4f6e6c79207468652063757272656e74206f776e65722063616e207365742061604482015269103732bb9037bbb732b960b11b6064820152608401610229565b600080546001600160a01b0319166001600160a01b0383169081179091556040519081527f4ffd725fc4a22075e9ec71c59edf9c38cdeb588a91b24fc5b61388c5be41282b906020016109a6565b60005b83811015610a87578181015183820152602001610a6f565b50506000910152565b60008151808452610aa8816020860160208601610a6c565b601f01601f19169290920160200192915050565b602081526000610acf6020830184610a90565b9392505050565b6001600160a01b0381168114610aeb57600080fd5b50565b600060208284031215610b0057600080fd5b8135610acf81610ad6565b600060208284031215610b1d57600080fd5b5051919050565b60208082526026908201527f54686520646973747269627574696f6e2071756575652063616e6e6f7420626560408201526520656d70747960d01b606082015260800190565b600060208284031215610b7c57600080fd5b815162ffffff81168114610acf57600080fd5b600060208284031215610ba157600080fd5b81518015158114610acf57600080fd5b634e487b7160e01b600052604160045260246000fd5b6040516080810167ffffffffffffffff81118282101715610bea57610bea610bb1565b60405290565b600082601f830112610c0157600080fd5b815167ffffffffffffffff811115610c1b57610c1b610bb1565b604051601f8201601f19908116603f0116810167ffffffffffffffff81118282101715610c4a57610c4a610bb1565b604052818152838201602001851015610c6257600080fd5b610c73826020830160208701610a6c565b949350505050565b600060208284031215610c8d57600080fd5b815167ffffffffffffffff811115610ca457600080fd5b820160808185031215610cb657600080fd5b610cbe610bc7565b815167ffffffffffffffff811115610cd557600080fd5b610ce186828501610bf0565b825250602082015167ffffffffffffffff811115610cfe57600080fd5b610d0a86828501610bf0565b6020830152506040828101519082015260609091015190610d2a82610ad6565b60608101919091529392505050565b60006060828403128015610d4c57600080fd5b506040516060810167ffffffffffffffff81118282101715610d7057610d70610bb1565b60409081528351825260208085015190830152830151610d8f81610ad6565b60408201529392505050565b6001600160a01b038316815260808101610acf602083018480518252602080820151908301526040908101516001600160a01b0316910152565b6080815260008351608080840152610df1610100840182610a90565b90506020850151607f198483030160a0850152610e0e8282610a90565b604087015160c086015260608701516001600160a01b031660e08601529250610acf915050602083018480518252602080820151908301526040908101516001600160a01b031691015256fea26469706673582212203dcd4d8dcfc82d3c7830cfee9873deec294eeaf803d619d08b083f5d1e3e65f164736f6c634300081e0033",
  "linkReferences": {},
  "deployedLinkReferences": {}
}