{
  "_format": "hh-sol-artifact-1",
  "contractName": "QueueHandler",
  "sourceName": "contracts/QueueHandler.sol",
  "abi": [
    {
      "inputs": [
        {
          "internalType": "address",
          "name": "roles_",
          "type": "address"
        },
        {
          "internalType": "address",
          "name": "sponsorshipQueue_",
          "type": "address"
        },
        {
          "internalType": "address",
          "name": "distributionQueue_",
          "type": "address"
        },
        {
          "internalType": "address",
          "name": "distributionVerifier_",
          "type": "address"
        }
      ],
      "stateMutability": "nonpayable",
      "type": "constructor"
    },
    {
      "anonymous": false,
      "inputs": [
        {
          "indexed": false,
          "internalType": "address",
          "name": "",
          "type": "address"
        }
      ],
      "name": "DistributionVerifierUpdated",
      "type": "event"
    },
    {
      "anonymous": false,
      "inputs": [
        {
          "indexed": false,
          "internalType": "address",
          "name": "",
          "type": "address"
        }
      ],
      "name": "OwnerUpdated",
      "type": "event"
    },
    {
      "anonymous": false,
      "inputs": [
        {
          "components": [
            {
              "internalType": "string",
              "name": "languageCode",
              "type": "string"
            },
            {
              "internalType": "string",
              "name": "androidId",
              "type": "string"
            },
            {
              "internalType": "uint256",
              "name": "timestamp",
              "type": "uint256"
            },
            {
              "internalType": "address",
              "name": "distributor",
              "type": "address"
            }
          ],
          "indexed": false,
          "internalType": "struct Distribution",
          "name": "",
          "type": "tuple"
        },
        {
          "components": [
            {
              "internalType": "uint256",
              "name": "estimatedCost",
              "type": "uint256"
            },
            {
              "internalType": "uint256",
              "name": "timestamp",
              "type": "uint256"
            },
            {
              "internalType": "address",
              "name": "sponsor",
              "type": "address"
            }
          ],
          "indexed": false,
          "internalType": "struct Sponsorship",
          "name": "",
          "type": "tuple"
        }
      ],
      "name": "QueuePairProcessed",
      "type": "event"
    },
    {
      "anonymous": false,
      "inputs": [
        {
          "indexed": false,
          "internalType": "address",
          "name": "",
          "type": "address"
        }
      ],
      "name": "RolesUpdated",
      "type": "event"
    },
    {
      "inputs": [],
      "name": "distributionQueue",
      "outputs": [
        {
          "internalType": "contract DistributionQueue",
          "name": "",
          "type": "address"
        }
      ],
      "stateMutability": "view",
      "type": "function"
    },
    {
      "inputs": [],
      "name": "distributionVerifier",
      "outputs": [
        {
          "internalType": "contract IDistributionVerifier",
          "name": "",
          "type": "address"
        }
      ],
      "stateMutability": "view",
      "type": "function"
    },
    {
      "inputs": [],
      "name": "owner",
      "outputs": [
        {
          "internalType": "address",
          "name": "",
          "type": "address"
        }
      ],
      "stateMutability": "view",
      "type": "function"
    },
    {
      "inputs": [],
      "name": "processQueuePair",
      "outputs": [],
      "stateMutability": "nonpayable",
      "type": "function"
    },
    {
      "inputs": [],
      "name": "removeRejectedDistribution",
      "outputs": [],
      "stateMutability": "nonpayable",
      "type": "function"
    },
    {
      "inputs": [],
      "name": "roles",
      "outputs": [
        {
          "internalType": "contract IRoles",
          "name": "",
          "type": "address"
        }
      ],
      "stateMutability": "view",
      "type": "function"
    },
    {
      "inputs": [],
      "name": "sponsorshipQueue",
      "outputs": [
        {
          "internalType": "contract SponsorshipQueue",
          "name": "",
          "type": "address"
        }
      ],
      "stateMutability": "view",
      "type": "function"
    },
    {
      "inputs": [
        {
          "internalType": "address",
          "name": "distributionVerifier_",
          "type": "address"
        }
      ],
      "name": "updateDistributionVerifier",
      "outputs": [],
      "stateMutability": "nonpayable",
      "type": "function"
    },
    {
      "inputs": [
        {
          "internalType": "address",
          "name": "owner_",
          "type": "address"
        }
      ],
      "name": "updateOwner",
      "outputs": [],
      "stateMutability": "nonpayable",
      "type": "function"
    },
    {
      "inputs": [
        {
          "internalType": "address",
          "name": "roles_",
          "type": "address"
        }
      ],
      "name": "updateRoles",
      "outputs": [],
      "stateMutability": "nonpayable",
      "type": "function"
    }
  ],
  "bytecode": "0x60c060405234801561001057600080fd5b5060405161115438038061115483398101604081905261002f91610093565b600080546001600160a01b03199081163317909155600180546001600160a01b0396871690831617905592841660805290831660a052600280549190931691161790556100e7565b80516001600160a01b038116811461008e57600080fd5b919050565b600080600080608085870312156100a957600080fd5b6100b285610077565b93506100c060208601610077565b92506100ce60408601610077565b91506100dc60608601610077565b905092959194509250565b60805160a05161100a61014a6000396000818161013601528181610267015281816103080152818161053e015281816107d60152818161087701526109e501526000818160a80152818161045f015281816105ca015261066b015261100a6000f3fe608060405234801561001057600080fd5b506004361061009e5760003560e01c80634de6087c116100665780634de6087c1461011e57806365772def14610131578063880cdc31146101585780638da5cb5b1461016b578063a815f7a21461017e57600080fd5b8063177df86b146100a35780632603b407146100e6578063392f5f64146100f05780633a80760a146101035780633b49a26d14610116575b600080fd5b6100ca7f000000000000000000000000000000000000000000000000000000000000000081565b6040516001600160a01b03909116815260200160405180910390f35b6100ee610191565b005b6001546100ca906001600160a01b031681565b6100ee610111366004610c11565b610710565b6100ee6107d2565b6100ee61012c366004610c11565b610a70565b6100ca7f000000000000000000000000000000000000000000000000000000000000000081565b6100ee610166366004610c11565b610b3e565b6000546100ca906001600160a01b031681565b6002546100ca906001600160a01b031681565b600154604051633e800ddf60e11b81523360048201526001600160a01b0390911690637d001bbe90602401602060405180830381865afa1580156101d9573d6000803e3d6000fd5b505050506040513d601f19601f820116820180604052508101906101fd9190610c35565b6102635760405162461bcd60e51b815260206004820152602c60248201527f4f6e6c792044414f206f70657261746f72732063616e2070726f63657373207160448201526b756575652070616972696e6760a01b60648201526084015b60405180910390fd5b60007f00000000000000000000000000000000000000000000000000000000000000006001600160a01b031663be1c766b6040518163ffffffff1660e01b8152600401602060405180830381865afa1580156102c3573d6000803e3d6000fd5b505050506040513d601f19601f820116820180604052508101906102e79190610c57565b116103045760405162461bcd60e51b815260040161025a90610c70565b60007f00000000000000000000000000000000000000000000000000000000000000006001600160a01b0316632fb0b6596040518163ffffffff1660e01b8152600401602060405180830381865afa158015610364573d6000803e3d6000fd5b505050506040513d601f19601f820116820180604052508101906103889190610cb6565b60025460405163680dd83760e11b815262ffffff831660048201529192506001600160a01b03169063d01bb06e90602401602060405180830381865afa1580156103d6573d6000803e3d6000fd5b505050506040513d601f19601f820116820180604052508101906103fa9190610c35565b61045b5760405162461bcd60e51b815260206004820152602c60248201527f4f6e6c7920617070726f76656420646973747269627574696f6e732063616e2060448201526b1899481c1c9bd8d95cdcd95960a21b606482015260840161025a565b60007f00000000000000000000000000000000000000000000000000000000000000006001600160a01b031663be1c766b6040518163ffffffff1660e01b8152600401602060405180830381865afa1580156104bb573d6000803e3d6000fd5b505050506040513d601f19601f820116820180604052508101906104df9190610c57565b1161053a5760405162461bcd60e51b815260206004820152602560248201527f5468652073706f6e736f72736869702071756575652063616e6e6f7420626520604482015264656d70747960d81b606482015260840161025a565b60007f00000000000000000000000000000000000000000000000000000000000000006001600160a01b031663957908d16040518163ffffffff1660e01b81526004016000604051808303816000875af115801561059c573d6000803e3d6000fd5b505050506040513d6000823e601f3d908101601f191682016040526105c49190810190610dc9565b905060007f00000000000000000000000000000000000000000000000000000000000000006001600160a01b031663957908d16040518163ffffffff1660e01b81526004016060604051808303816000875af1158015610628573d6000803e3d6000fd5b505050506040513d601f19601f8201168201806040525081019061064c9190610e87565b6060830151604051630e8042bd60e21b81529192506001600160a01b037f00000000000000000000000000000000000000000000000000000000000000001691633a010af4916106a0918590600401610ee9565b600060405180830381600087803b1580156106ba57600080fd5b505af11580156106ce573d6000803e3d6000fd5b505050507fc0bcc289d3a48478cddfad64f9d4ced83ef04c93d79fd79f9ac4dd1da7e3ac608282604051610703929190610f4f565b60405180910390a1505050565b6000546001600160a01b0316331461077d5760405162461bcd60e51b815260206004820152602a60248201527f4f6e6c7920746865206f776e65722063616e20736574207468652060726f6c656044820152697360206164647265737360b01b606482015260840161025a565b600180546001600160a01b0319166001600160a01b0383169081179091556040519081527f0fb53df5eaab7f6dbb10bfa2951418c0e50c8f11ea7298e2a159c0022b848005906020015b60405180910390a150565b60007f00000000000000000000000000000000000000000000000000000000000000006001600160a01b031663be1c766b6040518163ffffffff1660e01b8152600401602060405180830381865afa158015610832573d6000803e3d6000fd5b505050506040513d601f19601f820116820180604052508101906108569190610c57565b116108735760405162461bcd60e51b815260040161025a90610c70565b60007f00000000000000000000000000000000000000000000000000000000000000006001600160a01b0316632fb0b6596040518163ffffffff1660e01b8152600401602060405180830381865afa1580156108d3573d6000803e3d6000fd5b505050506040513d601f19601f820116820180604052508101906108f79190610cb6565b600254604051632385ac3b60e01b815262ffffff831660048201529192506000916001600160a01b0390911690632385ac3b90602401602060405180830381865afa15801561094a573d6000803e3d6000fd5b505050506040513d601f19601f8201168201806040525081019061096e9190610c35565b9050806109e35760405162461bcd60e51b815260206004820152603960248201527f4f6e6c792072656a656374656420646973747269627574696f6e732063616e2060448201527f62652072656d6f7665642066726f6d2074686520717565756500000000000000606482015260840161025a565b7f00000000000000000000000000000000000000000000000000000000000000006001600160a01b031663957908d16040518163ffffffff1660e01b81526004016000604051808303816000875af1158015610a43573d6000803e3d6000fd5b505050506040513d6000823e601f3d908101601f19168201604052610a6b9190810190610dc9565b505050565b6000546001600160a01b03163314610af05760405162461bcd60e51b815260206004820152603960248201527f4f6e6c7920746865206f776e65722063616e207365742074686520606469737460448201527f7269627574696f6e566572696669657260206164647265737300000000000000606482015260840161025a565b600280546001600160a01b0319166001600160a01b0383169081179091556040519081527f6cc0d3de1edeba7407979d71fe895d856235ad36361847ffa46fd7a3b0d123c7906020016107c7565b6000546001600160a01b03163314610bab5760405162461bcd60e51b815260206004820152602a60248201527f4f6e6c79207468652063757272656e74206f776e65722063616e207365742061604482015269103732bb9037bbb732b960b11b606482015260840161025a565b600080546001600160a01b0319166001600160a01b0383169081179091556040519081527f4ffd725fc4a22075e9ec71c59edf9c38cdeb588a91b24fc5b61388c5be41282b906020016107c7565b6001600160a01b0381168114610c0e57600080fd5b50565b600060208284031215610c2357600080fd5b8135610c2e81610bf9565b9392505050565b600060208284031215610c4757600080fd5b81518015158114610c2e57600080fd5b600060208284031215610c6957600080fd5b5051919050565b60208082526026908201527f54686520646973747269627574696f6e2071756575652063616e6e6f7420626560408201526520656d70747960d01b606082015260800190565b600060208284031215610cc857600080fd5b815162ffffff81168114610c2e57600080fd5b634e487b7160e01b600052604160045260246000fd5b6040516080810167ffffffffffffffff81118282101715610d1457610d14610cdb565b60405290565b60005b83811015610d35578181015183820152602001610d1d565b50506000910152565b600082601f830112610d4f57600080fd5b815167ffffffffffffffff811115610d6957610d69610cdb565b604051601f8201601f19908116603f0116810167ffffffffffffffff81118282101715610d9857610d98610cdb565b604052818152838201602001851015610db057600080fd5b610dc1826020830160208701610d1a565b949350505050565b600060208284031215610ddb57600080fd5b815167ffffffffffffffff811115610df257600080fd5b820160808185031215610e0457600080fd5b610e0c610cf1565b815167ffffffffffffffff811115610e2357600080fd5b610e2f86828501610d3e565b825250602082015167ffffffffffffffff811115610e4c57600080fd5b610e5886828501610d3e565b6020830152506040828101519082015260609091015190610e7882610bf9565b60608101919091529392505050565b60006060828403128015610e9a57600080fd5b506040516060810167ffffffffffffffff81118282101715610ebe57610ebe610cdb565b60409081528351825260208085015190830152830151610edd81610bf9565b60408201529392505050565b6001600160a01b038316815260808101610c2e602083018480518252602080820151908301526040908101516001600160a01b0316910152565b60008151808452610f3b816020860160208601610d1a565b601f01601f19169290920160200192915050565b6080815260008351608080840152610f6b610100840182610f23565b90506020850151607f198483030160a0850152610f888282610f23565b604087015160c086015260608701516001600160a01b031660e08601529250610c2e915050602083018480518252602080820151908301526040908101516001600160a01b031691015256fea26469706673582212201dbd7b4034f369a2838fbad11c42ec222e9b0d0e14808b8c8ad4477722484a4064736f6c634300081c0033",
  "linkReferences": {},
  "deployedLinkReferences": {}
}