{
  "_format": "hh-sol-artifact-1",
  "contractName": "QueueHandler",
  "sourceName": "contracts/QueueHandler.sol",
  "abi": [
    {
      "inputs": [
        {
          "internalType": "address",
          "name": "roles_",
          "type": "address"
        },
        {
          "internalType": "address",
          "name": "sponsorshipQueue_",
          "type": "address"
        },
        {
          "internalType": "address",
          "name": "distributionQueue_",
          "type": "address"
        },
        {
          "internalType": "address",
          "name": "distributionVerifier_",
          "type": "address"
        }
      ],
      "stateMutability": "nonpayable",
      "type": "constructor"
    },
    {
      "anonymous": false,
      "inputs": [
        {
          "indexed": false,
          "internalType": "address",
          "name": "",
          "type": "address"
        }
      ],
      "name": "DistributionVerifierUpdated",
      "type": "event"
    },
    {
      "anonymous": false,
      "inputs": [
        {
          "indexed": false,
          "internalType": "address",
          "name": "",
          "type": "address"
        }
      ],
      "name": "OwnerUpdated",
      "type": "event"
    },
    {
      "anonymous": false,
      "inputs": [
        {
          "components": [
            {
              "internalType": "string",
              "name": "languageCode",
              "type": "string"
            },
            {
              "internalType": "string",
              "name": "androidId",
              "type": "string"
            },
            {
              "internalType": "uint256",
              "name": "timestamp",
              "type": "uint256"
            },
            {
              "internalType": "address",
              "name": "distributor",
              "type": "address"
            }
          ],
          "indexed": false,
          "internalType": "struct Distribution",
          "name": "",
          "type": "tuple"
        },
        {
          "components": [
            {
              "internalType": "uint256",
              "name": "estimatedCost",
              "type": "uint256"
            },
            {
              "internalType": "uint256",
              "name": "timestamp",
              "type": "uint256"
            },
            {
              "internalType": "address",
              "name": "sponsor",
              "type": "address"
            }
          ],
          "indexed": false,
          "internalType": "struct Sponsorship",
          "name": "",
          "type": "tuple"
        }
      ],
      "name": "QueuePairProcessed",
      "type": "event"
    },
    {
      "anonymous": false,
      "inputs": [
        {
          "indexed": false,
          "internalType": "address",
          "name": "",
          "type": "address"
        }
      ],
      "name": "RolesUpdated",
      "type": "event"
    },
    {
      "inputs": [],
      "name": "distributionQueue",
      "outputs": [
        {
          "internalType": "contract DistributionQueue",
          "name": "",
          "type": "address"
        }
      ],
      "stateMutability": "view",
      "type": "function"
    },
    {
      "inputs": [],
      "name": "distributionVerifier",
      "outputs": [
        {
          "internalType": "contract IDistributionVerifier",
          "name": "",
          "type": "address"
        }
      ],
      "stateMutability": "view",
      "type": "function"
    },
    {
      "inputs": [],
      "name": "owner",
      "outputs": [
        {
          "internalType": "address",
          "name": "",
          "type": "address"
        }
      ],
      "stateMutability": "view",
      "type": "function"
    },
    {
      "inputs": [],
      "name": "processQueuePair",
      "outputs": [],
      "stateMutability": "nonpayable",
      "type": "function"
    },
    {
      "inputs": [],
      "name": "protocolVersion",
      "outputs": [
        {
          "internalType": "string",
          "name": "",
          "type": "string"
        }
      ],
      "stateMutability": "pure",
      "type": "function"
    },
    {
      "inputs": [],
      "name": "removeRejectedDistribution",
      "outputs": [],
      "stateMutability": "nonpayable",
      "type": "function"
    },
    {
      "inputs": [],
      "name": "roles",
      "outputs": [
        {
          "internalType": "contract IRoles",
          "name": "",
          "type": "address"
        }
      ],
      "stateMutability": "view",
      "type": "function"
    },
    {
      "inputs": [],
      "name": "sponsorshipQueue",
      "outputs": [
        {
          "internalType": "contract SponsorshipQueue",
          "name": "",
          "type": "address"
        }
      ],
      "stateMutability": "view",
      "type": "function"
    },
    {
      "inputs": [
        {
          "internalType": "address",
          "name": "distributionVerifier_",
          "type": "address"
        }
      ],
      "name": "updateDistributionVerifier",
      "outputs": [],
      "stateMutability": "nonpayable",
      "type": "function"
    },
    {
      "inputs": [
        {
          "internalType": "address",
          "name": "owner_",
          "type": "address"
        }
      ],
      "name": "updateOwner",
      "outputs": [],
      "stateMutability": "nonpayable",
      "type": "function"
    },
    {
      "inputs": [
        {
          "internalType": "address",
          "name": "roles_",
          "type": "address"
        }
      ],
      "name": "updateRoles",
      "outputs": [],
      "stateMutability": "nonpayable",
      "type": "function"
    }
  ],
  "bytecode": "0x60c060405234801561001057600080fd5b5060405161119a38038061119a83398101604081905261002f91610093565b600080546001600160a01b03199081163317909155600180546001600160a01b0396871690831617905592841660805290831660a052600280549190931691161790556100e7565b80516001600160a01b038116811461008e57600080fd5b919050565b600080600080608085870312156100a957600080fd5b6100b285610077565b93506100c060208601610077565b92506100ce60408601610077565b91506100dc60608601610077565b905092959194509250565b60805160a05161105061014a600039600081816101690152818161029a0152818161033b0152818161057101528181610809015281816108aa0152610a1801526000818160b301528181610492015281816105fd015261069e01526110506000f3fe608060405234801561001057600080fd5b50600436106100a95760003560e01c80633b49a26d116100715780633b49a26d146101495780634de6087c1461015157806365772def14610164578063880cdc311461018b5780638da5cb5b1461019e578063a815f7a2146101b157600080fd5b8063177df86b146100ae5780632603b407146100f25780632ae9c600146100fc578063392f5f64146101235780633a80760a14610136575b600080fd5b6100d57f000000000000000000000000000000000000000000000000000000000000000081565b6040516001600160a01b0390911681526020015b60405180910390f35b6100fa6101c4565b005b604080518082018252600581526418171b971960d91b602082015290516100e99190610c7c565b6001546100d5906001600160a01b031681565b6100fa610144366004610cae565b610743565b6100fa610805565b6100fa61015f366004610cae565b610aa3565b6100d57f000000000000000000000000000000000000000000000000000000000000000081565b6100fa610199366004610cae565b610b71565b6000546100d5906001600160a01b031681565b6002546100d5906001600160a01b031681565b600154604051633e800ddf60e11b81523360048201526001600160a01b0390911690637d001bbe90602401602060405180830381865afa15801561020c573d6000803e3d6000fd5b505050506040513d601f19601f820116820180604052508101906102309190610ccb565b6102965760405162461bcd60e51b815260206004820152602c60248201527f4f6e6c792044414f206f70657261746f72732063616e2070726f63657373207160448201526b756575652070616972696e6760a01b60648201526084015b60405180910390fd5b60007f00000000000000000000000000000000000000000000000000000000000000006001600160a01b031663be1c766b6040518163ffffffff1660e01b8152600401602060405180830381865afa1580156102f6573d6000803e3d6000fd5b505050506040513d601f19601f8201168201806040525081019061031a9190610ced565b116103375760405162461bcd60e51b815260040161028d90610d06565b60007f00000000000000000000000000000000000000000000000000000000000000006001600160a01b0316632fb0b6596040518163ffffffff1660e01b8152600401602060405180830381865afa158015610397573d6000803e3d6000fd5b505050506040513d601f19601f820116820180604052508101906103bb9190610d4c565b60025460405163680dd83760e11b815262ffffff831660048201529192506001600160a01b03169063d01bb06e90602401602060405180830381865afa158015610409573d6000803e3d6000fd5b505050506040513d601f19601f8201168201806040525081019061042d9190610ccb565b61048e5760405162461bcd60e51b815260206004820152602c60248201527f4f6e6c7920617070726f76656420646973747269627574696f6e732063616e2060448201526b1899481c1c9bd8d95cdcd95960a21b606482015260840161028d565b60007f00000000000000000000000000000000000000000000000000000000000000006001600160a01b031663be1c766b6040518163ffffffff1660e01b8152600401602060405180830381865afa1580156104ee573d6000803e3d6000fd5b505050506040513d601f19601f820116820180604052508101906105129190610ced565b1161056d5760405162461bcd60e51b815260206004820152602560248201527f5468652073706f6e736f72736869702071756575652063616e6e6f7420626520604482015264656d70747960d81b606482015260840161028d565b60007f00000000000000000000000000000000000000000000000000000000000000006001600160a01b031663957908d16040518163ffffffff1660e01b81526004016000604051808303816000875af11580156105cf573d6000803e3d6000fd5b505050506040513d6000823e601f3d908101601f191682016040526105f79190810190610e3b565b905060007f00000000000000000000000000000000000000000000000000000000000000006001600160a01b031663957908d16040518163ffffffff1660e01b81526004016060604051808303816000875af115801561065b573d6000803e3d6000fd5b505050506040513d601f19601f8201168201806040525081019061067f9190610ef9565b6060830151604051630e8042bd60e21b81529192506001600160a01b037f00000000000000000000000000000000000000000000000000000000000000001691633a010af4916106d3918590600401610f5b565b600060405180830381600087803b1580156106ed57600080fd5b505af1158015610701573d6000803e3d6000fd5b505050507fc0bcc289d3a48478cddfad64f9d4ced83ef04c93d79fd79f9ac4dd1da7e3ac608282604051610736929190610f95565b60405180910390a1505050565b6000546001600160a01b031633146107b05760405162461bcd60e51b815260206004820152602a60248201527f4f6e6c7920746865206f776e65722063616e20736574207468652060726f6c656044820152697360206164647265737360b01b606482015260840161028d565b600180546001600160a01b0319166001600160a01b0383169081179091556040519081527f0fb53df5eaab7f6dbb10bfa2951418c0e50c8f11ea7298e2a159c0022b848005906020015b60405180910390a150565b60007f00000000000000000000000000000000000000000000000000000000000000006001600160a01b031663be1c766b6040518163ffffffff1660e01b8152600401602060405180830381865afa158015610865573d6000803e3d6000fd5b505050506040513d601f19601f820116820180604052508101906108899190610ced565b116108a65760405162461bcd60e51b815260040161028d90610d06565b60007f00000000000000000000000000000000000000000000000000000000000000006001600160a01b0316632fb0b6596040518163ffffffff1660e01b8152600401602060405180830381865afa158015610906573d6000803e3d6000fd5b505050506040513d601f19601f8201168201806040525081019061092a9190610d4c565b600254604051632385ac3b60e01b815262ffffff831660048201529192506000916001600160a01b0390911690632385ac3b90602401602060405180830381865afa15801561097d573d6000803e3d6000fd5b505050506040513d601f19601f820116820180604052508101906109a19190610ccb565b905080610a165760405162461bcd60e51b815260206004820152603960248201527f4f6e6c792072656a656374656420646973747269627574696f6e732063616e2060448201527f62652072656d6f7665642066726f6d2074686520717565756500000000000000606482015260840161028d565b7f00000000000000000000000000000000000000000000000000000000000000006001600160a01b031663957908d16040518163ffffffff1660e01b81526004016000604051808303816000875af1158015610a76573d6000803e3d6000fd5b505050506040513d6000823e601f3d908101601f19168201604052610a9e9190810190610e3b565b505050565b6000546001600160a01b03163314610b235760405162461bcd60e51b815260206004820152603960248201527f4f6e6c7920746865206f776e65722063616e207365742074686520606469737460448201527f7269627574696f6e566572696669657260206164647265737300000000000000606482015260840161028d565b600280546001600160a01b0319166001600160a01b0383169081179091556040519081527f6cc0d3de1edeba7407979d71fe895d856235ad36361847ffa46fd7a3b0d123c7906020016107fa565b6000546001600160a01b03163314610bde5760405162461bcd60e51b815260206004820152602a60248201527f4f6e6c79207468652063757272656e74206f776e65722063616e207365742061604482015269103732bb9037bbb732b960b11b606482015260840161028d565b600080546001600160a01b0319166001600160a01b0383169081179091556040519081527f4ffd725fc4a22075e9ec71c59edf9c38cdeb588a91b24fc5b61388c5be41282b906020016107fa565b60005b83811015610c47578181015183820152602001610c2f565b50506000910152565b60008151808452610c68816020860160208601610c2c565b601f01601f19169290920160200192915050565b602081526000610c8f6020830184610c50565b9392505050565b6001600160a01b0381168114610cab57600080fd5b50565b600060208284031215610cc057600080fd5b8135610c8f81610c96565b600060208284031215610cdd57600080fd5b81518015158114610c8f57600080fd5b600060208284031215610cff57600080fd5b5051919050565b60208082526026908201527f54686520646973747269627574696f6e2071756575652063616e6e6f7420626560408201526520656d70747960d01b606082015260800190565b600060208284031215610d5e57600080fd5b815162ffffff81168114610c8f57600080fd5b634e487b7160e01b600052604160045260246000fd5b6040516080810167ffffffffffffffff81118282101715610daa57610daa610d71565b60405290565b600082601f830112610dc157600080fd5b815167ffffffffffffffff811115610ddb57610ddb610d71565b604051601f8201601f19908116603f0116810167ffffffffffffffff81118282101715610e0a57610e0a610d71565b604052818152838201602001851015610e2257600080fd5b610e33826020830160208701610c2c565b949350505050565b600060208284031215610e4d57600080fd5b815167ffffffffffffffff811115610e6457600080fd5b820160808185031215610e7657600080fd5b610e7e610d87565b815167ffffffffffffffff811115610e9557600080fd5b610ea186828501610db0565b825250602082015167ffffffffffffffff811115610ebe57600080fd5b610eca86828501610db0565b6020830152506040828101519082015260609091015190610eea82610c96565b60608101919091529392505050565b60006060828403128015610f0c57600080fd5b506040516060810167ffffffffffffffff81118282101715610f3057610f30610d71565b60409081528351825260208085015190830152830151610f4f81610c96565b60408201529392505050565b6001600160a01b038316815260808101610c8f602083018480518252602080820151908301526040908101516001600160a01b0316910152565b6080815260008351608080840152610fb1610100840182610c50565b90506020850151607f198483030160a0850152610fce8282610c50565b604087015160c086015260608701516001600160a01b031660e08601529250610c8f915050602083018480518252602080820151908301526040908101516001600160a01b031691015256fea2646970667358221220ffcaa9df203b84d03638cc9156216e3811cdfd672be38f561ed960e50b84d9ef64736f6c634300081e0033",
  "linkReferences": {},
  "deployedLinkReferences": {}
}