{
  "_format": "hh-sol-artifact-1",
  "contractName": "SponsorshipQueue",
  "sourceName": "contracts/SponsorshipQueue.sol",
  "abi": [
    {
      "inputs": [
        {
          "internalType": "uint256",
          "name": "estimatedCost_",
          "type": "uint256"
        }
      ],
      "stateMutability": "nonpayable",
      "type": "constructor"
    },
    {
      "inputs": [],
      "name": "InvalidLanguageCode",
      "type": "error"
    },
    {
      "anonymous": false,
      "inputs": [
        {
          "indexed": false,
          "internalType": "uint256",
          "name": "",
          "type": "uint256"
        }
      ],
      "name": "EstimatedCostUpdated",
      "type": "event"
    },
    {
      "anonymous": false,
      "inputs": [
        {
          "indexed": false,
          "internalType": "address",
          "name": "",
          "type": "address"
        }
      ],
      "name": "OwnerUpdated",
      "type": "event"
    },
    {
      "anonymous": false,
      "inputs": [
        {
          "indexed": false,
          "internalType": "address",
          "name": "",
          "type": "address"
        }
      ],
      "name": "QueueHandlerUpdated",
      "type": "event"
    },
    {
      "anonymous": false,
      "inputs": [
        {
          "indexed": false,
          "internalType": "uint256",
          "name": "estimatedCost",
          "type": "uint256"
        },
        {
          "indexed": false,
          "internalType": "uint256",
          "name": "timestamp",
          "type": "uint256"
        },
        {
          "indexed": true,
          "internalType": "address",
          "name": "sponsor",
          "type": "address"
        }
      ],
      "name": "SponsorshipAdded",
      "type": "event"
    },
    {
      "inputs": [],
      "name": "addSponsorship",
      "outputs": [],
      "stateMutability": "payable",
      "type": "function"
    },
    {
      "inputs": [],
      "name": "dequeue",
      "outputs": [
        {
          "components": [
            {
              "internalType": "uint256",
              "name": "estimatedCost",
              "type": "uint256"
            },
            {
              "internalType": "uint256",
              "name": "timestamp",
              "type": "uint256"
            },
            {
              "internalType": "address",
              "name": "sponsor",
              "type": "address"
            }
          ],
          "internalType": "struct Sponsorship",
          "name": "",
          "type": "tuple"
        }
      ],
      "stateMutability": "nonpayable",
      "type": "function"
    },
    {
      "inputs": [],
      "name": "estimatedCost",
      "outputs": [
        {
          "internalType": "uint256",
          "name": "",
          "type": "uint256"
        }
      ],
      "stateMutability": "view",
      "type": "function"
    },
    {
      "inputs": [],
      "name": "getLength",
      "outputs": [
        {
          "internalType": "uint256",
          "name": "",
          "type": "uint256"
        }
      ],
      "stateMutability": "view",
      "type": "function"
    },
    {
      "inputs": [],
      "name": "owner",
      "outputs": [
        {
          "internalType": "address",
          "name": "",
          "type": "address"
        }
      ],
      "stateMutability": "view",
      "type": "function"
    },
    {
      "inputs": [
        {
          "internalType": "address",
          "name": "distributor",
          "type": "address"
        },
        {
          "components": [
            {
              "internalType": "uint256",
              "name": "estimatedCost",
              "type": "uint256"
            },
            {
              "internalType": "uint256",
              "name": "timestamp",
              "type": "uint256"
            },
            {
              "internalType": "address",
              "name": "sponsor",
              "type": "address"
            }
          ],
          "internalType": "struct Sponsorship",
          "name": "sponsorship",
          "type": "tuple"
        }
      ],
      "name": "payDistributor",
      "outputs": [],
      "stateMutability": "nonpayable",
      "type": "function"
    },
    {
      "inputs": [
        {
          "internalType": "uint24",
          "name": "",
          "type": "uint24"
        }
      ],
      "name": "queue",
      "outputs": [
        {
          "internalType": "uint256",
          "name": "estimatedCost",
          "type": "uint256"
        },
        {
          "internalType": "uint256",
          "name": "timestamp",
          "type": "uint256"
        },
        {
          "internalType": "address",
          "name": "sponsor",
          "type": "address"
        }
      ],
      "stateMutability": "view",
      "type": "function"
    },
    {
      "inputs": [],
      "name": "queueHandler",
      "outputs": [
        {
          "internalType": "address",
          "name": "",
          "type": "address"
        }
      ],
      "stateMutability": "view",
      "type": "function"
    },
    {
      "inputs": [],
      "name": "queueNumberFront",
      "outputs": [
        {
          "internalType": "uint24",
          "name": "",
          "type": "uint24"
        }
      ],
      "stateMutability": "view",
      "type": "function"
    },
    {
      "inputs": [],
      "name": "queueNumberNext",
      "outputs": [
        {
          "internalType": "uint24",
          "name": "",
          "type": "uint24"
        }
      ],
      "stateMutability": "view",
      "type": "function"
    },
    {
      "inputs": [
        {
          "internalType": "uint256",
          "name": "estimatedCost_",
          "type": "uint256"
        }
      ],
      "name": "updateEstimatedCost",
      "outputs": [],
      "stateMutability": "nonpayable",
      "type": "function"
    },
    {
      "inputs": [
        {
          "internalType": "address",
          "name": "owner_",
          "type": "address"
        }
      ],
      "name": "updateOwner",
      "outputs": [],
      "stateMutability": "nonpayable",
      "type": "function"
    },
    {
      "inputs": [
        {
          "internalType": "address",
          "name": "queueHandler_",
          "type": "address"
        }
      ],
      "name": "updateQueueHandler",
      "outputs": [],
      "stateMutability": "nonpayable",
      "type": "function"
    }
  ],
  "bytecode": "0x60806040526004805465ffffffffffff19166301000001179055348015602457600080fd5b50604051610acf380380610acf833981016040819052604191605a565b600080546001600160a01b031916331790556001556072565b600060208284031215606b57600080fd5b5051919050565b610a4e806100816000396000f3fe6080604052600436106100c25760003560e01c8063880cdc311161007f578063957908d111610059578063957908d114610201578063be1c766b14610241578063c62a731714610264578063d6ed2f06146102cd57600080fd5b8063880cdc31146101895780638849a433146101a95780638da5cb5b146101e157600080fd5b806313ae19b3146100c75780632fb0b659146100e95780633a010af41461011e578063423e36491461013e5780636e28e29c1461016157806370b62b4914610169575b600080fd5b3480156100d357600080fd5b506100e76100e23660046108d2565b6102e3565b005b3480156100f557600080fd5b506004546101059062ffffff1681565b60405162ffffff90911681526020015b60405180910390f35b34801561012a57600080fd5b506100e76101393660046108f4565b6103b1565b34801561014a57600080fd5b50600454610105906301000000900462ffffff1681565b6100e7610459565b34801561017557600080fd5b506100e7610184366004610988565b61051c565b34801561019557600080fd5b506100e76101a43660046108d2565b6105be565b3480156101b557600080fd5b506002546101c9906001600160a01b031681565b6040516001600160a01b039091168152602001610115565b3480156101ed57600080fd5b506000546101c9906001600160a01b031681565b34801561020d57600080fd5b50610216610679565b604080518251815260208084015190820152918101516001600160a01b031690820152606001610115565b34801561024d57600080fd5b506102566107fc565b604051908152602001610115565b34801561027057600080fd5b506102a961027f3660046109a1565b6003602052600090815260409020805460018201546002909201549091906001600160a01b031683565b6040805193845260208401929092526001600160a01b031690820152606001610115565b3480156102d957600080fd5b5061025660015481565b6000546001600160a01b0316331461035c5760405162461bcd60e51b815260206004820152603160248201527f4f6e6c7920746865206f776e65722063616e20736574207468652060717565756044820152706548616e646c657260206164647265737360781b60648201526084015b60405180910390fd5b600280546001600160a01b0319166001600160a01b0383169081179091556040519081527f05ec78f77a1d48e6e47c6b09252624424c3402b3a8e99a48e59f0d710d7e7742906020015b60405180910390a150565b6002546001600160a01b0316331461041e5760405162461bcd60e51b815260206004820152602a60248201527f4f6e6c79207468652071756575652068616e646c65722063616e2070726f63656044820152697373207061796f75747360b01b6064820152608401610353565b80516040516001600160a01b0384169180156108fc02916000818181858888f19350505050158015610454573d6000803e3d6000fd5b505050565b60015434146104b65760405162461bcd60e51b8152602060048201526024808201527f4d7573742073656e642065786163746c792074686520657374696d617465642060448201526318dbdcdd60e21b6064820152608401610353565b60408051606081018252600154815242602082015233918101919091526104dc81610825565b6001546040805191825242602083015233917f6488abe97b0aa235033c225a695332d6250aeea60d8d80c54f76cc71f99e8218910160405180910390a250565b6000546001600160a01b031633146105895760405162461bcd60e51b815260206004820152602a60248201527f4f6e6c7920746865206f776e65722063616e2073657420746865206065737469604482015269036b0ba32b221b7b9ba360b51b6064820152608401610353565b60018190556040518181527f33c78a8bf87e9543dd141ff0b40c84fcd144e6d54cadbce6b444da8581108870906020016103a6565b6000546001600160a01b0316331461062b5760405162461bcd60e51b815260206004820152602a60248201527f4f6e6c79207468652063757272656e74206f776e65722063616e207365742061604482015269103732bb9037bbb732b960b11b6064820152608401610353565b600080546001600160a01b0319166001600160a01b0383169081179091556040519081527f4ffd725fc4a22075e9ec71c59edf9c38cdeb588a91b24fc5b61388c5be41282b906020016103a6565b6106a66040518060600160405280600081526020016000815260200160006001600160a01b031681525090565b6002546001600160a01b031633146107195760405162461bcd60e51b815260206004820152603060248201527f4f6e6c79207468652071756575652068616e646c65722063616e2072656d6f7660448201526f652066726f6d2074686520717565756560801b6064820152608401610353565b60006107236107fc565b116107615760405162461bcd60e51b815260206004820152600e60248201526d517565756520697320656d70747960901b6044820152606401610353565b6004805462ffffff908116600081815260036020818152604080842081516060810183528154815260018281018054838701526002840180546001600160a01b038116968501969096529888529590945290859055928490556001600160a01b0319169093558454909492936107d9918591166109dc565b92506101000a81548162ffffff021916908362ffffff1602179055508091505090565b60045460009061081b9062ffffff8082169163010000009004166109fd565b62ffffff16905090565b6004805463010000009081900462ffffff908116600090815260036020818152604092839020875181559087015160018083019190915592870151600290910180546001600160a01b0319166001600160a01b03909216919091179055845491949390926108979286929004166109dc565b92506101000a81548162ffffff021916908362ffffff16021790555050565b80356001600160a01b03811681146108cd57600080fd5b919050565b6000602082840312156108e457600080fd5b6108ed826108b6565b9392505050565b600080828403608081121561090857600080fd5b610911846108b6565b92506060601f198201121561092557600080fd5b506040516060810181811067ffffffffffffffff8211171561095757634e487b7160e01b600052604160045260246000fd5b604090815260208581013583529085013590820152610978606085016108b6565b6040820152809150509250929050565b60006020828403121561099a57600080fd5b5035919050565b6000602082840312156109b357600080fd5b813562ffffff811681146108ed57600080fd5b634e487b7160e01b600052601160045260246000fd5b62ffffff81811683821601908111156109f7576109f76109c6565b92915050565b62ffffff82811682821603908111156109f7576109f76109c656fea264697066735822122002b70aa107ceb608666d8deb7d51618be9d47b030a3870a2e3f55ba60af5401764736f6c634300081e0033",
  "linkReferences": {},
  "deployedLinkReferences": {}
}