{
  "_format": "hh-sol-artifact-1",
  "contractName": "SponsorshipQueue",
  "sourceName": "contracts/SponsorshipQueue.sol",
  "abi": [
    {
      "inputs": [
        {
          "internalType": "uint256",
          "name": "estimatedCost_",
          "type": "uint256"
        }
      ],
      "stateMutability": "nonpayable",
      "type": "constructor"
    },
    {
      "inputs": [],
      "name": "InvalidLanguageCode",
      "type": "error"
    },
    {
      "anonymous": false,
      "inputs": [
        {
          "indexed": false,
          "internalType": "uint256",
          "name": "",
          "type": "uint256"
        }
      ],
      "name": "EstimatedCostUpdated",
      "type": "event"
    },
    {
      "anonymous": false,
      "inputs": [
        {
          "indexed": false,
          "internalType": "address",
          "name": "",
          "type": "address"
        }
      ],
      "name": "OwnerUpdated",
      "type": "event"
    },
    {
      "anonymous": false,
      "inputs": [
        {
          "indexed": false,
          "internalType": "address",
          "name": "",
          "type": "address"
        }
      ],
      "name": "QueueHandlerUpdated",
      "type": "event"
    },
    {
      "anonymous": false,
      "inputs": [
        {
          "indexed": true,
          "internalType": "address",
          "name": "sponsor",
          "type": "address"
        }
      ],
      "name": "SponsorshipAdded",
      "type": "event"
    },
    {
      "inputs": [],
      "name": "addSponsorship",
      "outputs": [],
      "stateMutability": "payable",
      "type": "function"
    },
    {
      "inputs": [],
      "name": "dequeue",
      "outputs": [
        {
          "components": [
            {
              "internalType": "uint256",
              "name": "estimatedCost",
              "type": "uint256"
            },
            {
              "internalType": "uint256",
              "name": "timestamp",
              "type": "uint256"
            },
            {
              "internalType": "address",
              "name": "sponsor",
              "type": "address"
            }
          ],
          "internalType": "struct Sponsorship",
          "name": "",
          "type": "tuple"
        }
      ],
      "stateMutability": "nonpayable",
      "type": "function"
    },
    {
      "inputs": [],
      "name": "estimatedCost",
      "outputs": [
        {
          "internalType": "uint256",
          "name": "",
          "type": "uint256"
        }
      ],
      "stateMutability": "view",
      "type": "function"
    },
    {
      "inputs": [],
      "name": "getLength",
      "outputs": [
        {
          "internalType": "uint256",
          "name": "",
          "type": "uint256"
        }
      ],
      "stateMutability": "view",
      "type": "function"
    },
    {
      "inputs": [],
      "name": "owner",
      "outputs": [
        {
          "internalType": "address",
          "name": "",
          "type": "address"
        }
      ],
      "stateMutability": "view",
      "type": "function"
    },
    {
      "inputs": [
        {
          "internalType": "address",
          "name": "distributor",
          "type": "address"
        },
        {
          "components": [
            {
              "internalType": "uint256",
              "name": "estimatedCost",
              "type": "uint256"
            },
            {
              "internalType": "uint256",
              "name": "timestamp",
              "type": "uint256"
            },
            {
              "internalType": "address",
              "name": "sponsor",
              "type": "address"
            }
          ],
          "internalType": "struct Sponsorship",
          "name": "sponsorship",
          "type": "tuple"
        }
      ],
      "name": "payDistributor",
      "outputs": [],
      "stateMutability": "nonpayable",
      "type": "function"
    },
    {
      "inputs": [],
      "name": "protocolVersion",
      "outputs": [
        {
          "internalType": "string",
          "name": "",
          "type": "string"
        }
      ],
      "stateMutability": "pure",
      "type": "function"
    },
    {
      "inputs": [
        {
          "internalType": "uint24",
          "name": "",
          "type": "uint24"
        }
      ],
      "name": "queue",
      "outputs": [
        {
          "internalType": "uint256",
          "name": "estimatedCost",
          "type": "uint256"
        },
        {
          "internalType": "uint256",
          "name": "timestamp",
          "type": "uint256"
        },
        {
          "internalType": "address",
          "name": "sponsor",
          "type": "address"
        }
      ],
      "stateMutability": "view",
      "type": "function"
    },
    {
      "inputs": [],
      "name": "queueHandler",
      "outputs": [
        {
          "internalType": "address",
          "name": "",
          "type": "address"
        }
      ],
      "stateMutability": "view",
      "type": "function"
    },
    {
      "inputs": [],
      "name": "queueNumberFront",
      "outputs": [
        {
          "internalType": "uint24",
          "name": "",
          "type": "uint24"
        }
      ],
      "stateMutability": "view",
      "type": "function"
    },
    {
      "inputs": [],
      "name": "queueNumberNext",
      "outputs": [
        {
          "internalType": "uint24",
          "name": "",
          "type": "uint24"
        }
      ],
      "stateMutability": "view",
      "type": "function"
    },
    {
      "inputs": [
        {
          "internalType": "uint256",
          "name": "estimatedCost_",
          "type": "uint256"
        }
      ],
      "name": "updateEstimatedCost",
      "outputs": [],
      "stateMutability": "nonpayable",
      "type": "function"
    },
    {
      "inputs": [
        {
          "internalType": "address",
          "name": "owner_",
          "type": "address"
        }
      ],
      "name": "updateOwner",
      "outputs": [],
      "stateMutability": "nonpayable",
      "type": "function"
    },
    {
      "inputs": [
        {
          "internalType": "address",
          "name": "queueHandler_",
          "type": "address"
        }
      ],
      "name": "updateQueueHandler",
      "outputs": [],
      "stateMutability": "nonpayable",
      "type": "function"
    }
  ],
  "bytecode": "0x60806040526004805465ffffffffffff19166301000001179055348015602457600080fd5b50604051610b5e380380610b5e833981016040819052604191605a565b600080546001600160a01b031916331790556001556072565b600060208284031215606b57600080fd5b5051919050565b610add806100816000396000f3fe6080604052600436106100dd5760003560e01c8063880cdc311161007f578063957908d111610059578063957908d114610254578063be1c766b14610294578063c62a7317146102b7578063d6ed2f061461032057600080fd5b8063880cdc31146101dc5780638849a433146101fc5780638da5cb5b1461023457600080fd5b80633a010af4116100bb5780633a010af414610171578063423e3649146101915780636e28e29c146101b457806370b62b49146101bc57600080fd5b806313ae19b3146100e25780632ae9c600146101045780632fb0b65914610141575b600080fd5b3480156100ee57600080fd5b506101026100fd366004610913565b610336565b005b34801561011057600080fd5b5060408051808201825260058152640302e382e360dc1b602082015290516101389190610935565b60405180910390f35b34801561014d57600080fd5b5060045461015d9062ffffff1681565b60405162ffffff9091168152602001610138565b34801561017d57600080fd5b5061010261018c366004610983565b610404565b34801561019d57600080fd5b5060045461015d906301000000900462ffffff1681565b6101026104ac565b3480156101c857600080fd5b506101026101d7366004610a17565b61055d565b3480156101e857600080fd5b506101026101f7366004610913565b6105ff565b34801561020857600080fd5b5060025461021c906001600160a01b031681565b6040516001600160a01b039091168152602001610138565b34801561024057600080fd5b5060005461021c906001600160a01b031681565b34801561026057600080fd5b506102696106ba565b604080518251815260208084015190820152918101516001600160a01b031690820152606001610138565b3480156102a057600080fd5b506102a961083d565b604051908152602001610138565b3480156102c357600080fd5b506102fc6102d2366004610a30565b6003602052600090815260409020805460018201546002909201549091906001600160a01b031683565b6040805193845260208401929092526001600160a01b031690820152606001610138565b34801561032c57600080fd5b506102a960015481565b6000546001600160a01b031633146103af5760405162461bcd60e51b815260206004820152603160248201527f4f6e6c7920746865206f776e65722063616e20736574207468652060717565756044820152706548616e646c657260206164647265737360781b60648201526084015b60405180910390fd5b600280546001600160a01b0319166001600160a01b0383169081179091556040519081527f05ec78f77a1d48e6e47c6b09252624424c3402b3a8e99a48e59f0d710d7e7742906020015b60405180910390a150565b6002546001600160a01b031633146104715760405162461bcd60e51b815260206004820152602a60248201527f4f6e6c79207468652071756575652068616e646c65722063616e2070726f63656044820152697373207061796f75747360b01b60648201526084016103a6565b80516040516001600160a01b0384169180156108fc02916000818181858888f193505050501580156104a7573d6000803e3d6000fd5b505050565b60015434146105095760405162461bcd60e51b8152602060048201526024808201527f4d7573742073656e642065786163746c792074686520657374696d617465642060448201526318dbdcdd60e21b60648201526084016103a6565b604080516060810182526001548152426020820152339181019190915261052f81610866565b60405133907ff2dc03824d0b292998b0d0680696402e2181768b8fe96a649bc7572b83dda19490600090a250565b6000546001600160a01b031633146105ca5760405162461bcd60e51b815260206004820152602a60248201527f4f6e6c7920746865206f776e65722063616e2073657420746865206065737469604482015269036b0ba32b221b7b9ba360b51b60648201526084016103a6565b60018190556040518181527f33c78a8bf87e9543dd141ff0b40c84fcd144e6d54cadbce6b444da8581108870906020016103f9565b6000546001600160a01b0316331461066c5760405162461bcd60e51b815260206004820152602a60248201527f4f6e6c79207468652063757272656e74206f776e65722063616e207365742061604482015269103732bb9037bbb732b960b11b60648201526084016103a6565b600080546001600160a01b0319166001600160a01b0383169081179091556040519081527f4ffd725fc4a22075e9ec71c59edf9c38cdeb588a91b24fc5b61388c5be41282b906020016103f9565b6106e76040518060600160405280600081526020016000815260200160006001600160a01b031681525090565b6002546001600160a01b0316331461075a5760405162461bcd60e51b815260206004820152603060248201527f4f6e6c79207468652071756575652068616e646c65722063616e2072656d6f7660448201526f652066726f6d2074686520717565756560801b60648201526084016103a6565b600061076461083d565b116107a25760405162461bcd60e51b815260206004820152600e60248201526d517565756520697320656d70747960901b60448201526064016103a6565b6004805462ffffff908116600081815260036020818152604080842081516060810183528154815260018281018054838701526002840180546001600160a01b038116968501969096529888529590945290859055928490556001600160a01b03191690935584549094929361081a91859116610a6b565b92506101000a81548162ffffff021916908362ffffff1602179055508091505090565b60045460009061085c9062ffffff808216916301000000900416610a8c565b62ffffff16905090565b6004805463010000009081900462ffffff908116600090815260036020818152604092839020875181559087015160018083019190915592870151600290910180546001600160a01b0319166001600160a01b03909216919091179055845491949390926108d8928692900416610a6b565b92506101000a81548162ffffff021916908362ffffff16021790555050565b80356001600160a01b038116811461090e57600080fd5b919050565b60006020828403121561092557600080fd5b61092e826108f7565b9392505050565b602081526000825180602084015260005b818110156109635760208186018101516040868401015201610946565b506000604082850101526040601f19601f83011684010191505092915050565b600080828403608081121561099757600080fd5b6109a0846108f7565b92506060601f19820112156109b457600080fd5b506040516060810181811067ffffffffffffffff821117156109e657634e487b7160e01b600052604160045260246000fd5b604090815260208581013583529085013590820152610a07606085016108f7565b6040820152809150509250929050565b600060208284031215610a2957600080fd5b5035919050565b600060208284031215610a4257600080fd5b813562ffffff8116811461092e57600080fd5b634e487b7160e01b600052601160045260246000fd5b62ffffff8181168382160190811115610a8657610a86610a55565b92915050565b62ffffff8281168282160390811115610a8657610a86610a5556fea2646970667358221220f5f27065303995e2abf2da55431d328e6b74bb2020686c295e943f1d9cb4b69a64736f6c634300081e0033",
  "linkReferences": {},
  "deployedLinkReferences": {}
}